{
  "_format": "hh-sol-artifact-1",
  "contractName": "PublicResolver",
  "sourceName": "@ensdomains/ens-contracts/contracts/resolvers/PublicResolver.sol",
  "abi": [
    {
      "inputs": [
        {
          "internalType": "contract ENS",
          "name": "_ens",
          "type": "address"
        },
        {
          "internalType": "contract INameWrapper",
          "name": "wrapperAddress",
          "type": "address"
        }
      ],
      "stateMutability": "nonpayable",
      "type": "constructor"
    },
    {
      "anonymous": false,
      "inputs": [
        {
          "indexed": true,
          "internalType": "bytes32",
          "name": "node",
          "type": "bytes32"
        },
        {
          "indexed": true,
          "internalType": "uint256",
          "name": "contentType",
          "type": "uint256"
        }
      ],
      "name": "ABIChanged",
      "type": "event"
    },
    {
      "anonymous": false,
      "inputs": [
        {
          "indexed": true,
          "internalType": "bytes32",
          "name": "node",
          "type": "bytes32"
        },
        {
          "indexed": false,
          "internalType": "address",
          "name": "a",
          "type": "address"
        }
      ],
      "name": "AddrChanged",
      "type": "event"
    },
    {
      "anonymous": false,
      "inputs": [
        {
          "indexed": true,
          "internalType": "bytes32",
          "name": "node",
          "type": "bytes32"
        },
        {
          "indexed": false,
          "internalType": "uint256",
          "name": "coinType",
          "type": "uint256"
        },
        {
          "indexed": false,
          "internalType": "bytes",
          "name": "newAddress",
          "type": "bytes"
        }
      ],
      "name": "AddressChanged",
      "type": "event"
    },
    {
      "anonymous": false,
      "inputs": [
        {
          "indexed": true,
          "internalType": "address",
          "name": "owner",
          "type": "address"
        },
        {
          "indexed": true,
          "internalType": "address",
          "name": "operator",
          "type": "address"
        },
        {
          "indexed": false,
          "internalType": "bool",
          "name": "approved",
          "type": "bool"
        }
      ],
      "name": "ApprovalForAll",
      "type": "event"
    },
    {
      "anonymous": false,
      "inputs": [
        {
          "indexed": true,
          "internalType": "bytes32",
          "name": "node",
          "type": "bytes32"
        },
        {
          "indexed": false,
          "internalType": "bytes",
          "name": "hash",
          "type": "bytes"
        }
      ],
      "name": "ContenthashChanged",
      "type": "event"
    },
    {
      "anonymous": false,
      "inputs": [
        {
          "indexed": true,
          "internalType": "bytes32",
          "name": "node",
          "type": "bytes32"
        },
        {
          "indexed": false,
          "internalType": "bytes",
          "name": "name",
          "type": "bytes"
        },
        {
          "indexed": false,
          "internalType": "uint16",
          "name": "resource",
          "type": "uint16"
        },
        {
          "indexed": false,
          "internalType": "bytes",
          "name": "record",
          "type": "bytes"
        }
      ],
      "name": "DNSRecordChanged",
      "type": "event"
    },
    {
      "anonymous": false,
      "inputs": [
        {
          "indexed": true,
          "internalType": "bytes32",
          "name": "node",
          "type": "bytes32"
        },
        {
          "indexed": false,
          "internalType": "bytes",
          "name": "name",
          "type": "bytes"
        },
        {
          "indexed": false,
          "internalType": "uint16",
          "name": "resource",
          "type": "uint16"
        }
      ],
      "name": "DNSRecordDeleted",
      "type": "event"
    },
    {
      "anonymous": false,
      "inputs": [
        {
          "indexed": true,
          "internalType": "bytes32",
          "name": "node",
          "type": "bytes32"
        }
      ],
      "name": "DNSZoneCleared",
      "type": "event"
    },
    {
      "anonymous": false,
      "inputs": [
        {
          "indexed": true,
          "internalType": "bytes32",
          "name": "node",
          "type": "bytes32"
        },
        {
          "indexed": false,
          "internalType": "bytes",
          "name": "lastzonehash",
          "type": "bytes"
        },
        {
          "indexed": false,
          "internalType": "bytes",
          "name": "zonehash",
          "type": "bytes"
        }
      ],
      "name": "DNSZonehashChanged",
      "type": "event"
    },
    {
      "anonymous": false,
      "inputs": [
        {
          "indexed": true,
          "internalType": "bytes32",
          "name": "node",
          "type": "bytes32"
        },
        {
          "indexed": true,
          "internalType": "bytes4",
          "name": "interfaceID",
          "type": "bytes4"
        },
        {
          "indexed": false,
          "internalType": "address",
          "name": "implementer",
          "type": "address"
        }
      ],
      "name": "InterfaceChanged",
      "type": "event"
    },
    {
      "anonymous": false,
      "inputs": [
        {
          "indexed": true,
          "internalType": "bytes32",
          "name": "node",
          "type": "bytes32"
        },
        {
          "indexed": false,
          "internalType": "string",
          "name": "name",
          "type": "string"
        }
      ],
      "name": "NameChanged",
      "type": "event"
    },
    {
      "anonymous": false,
      "inputs": [
        {
          "indexed": true,
          "internalType": "bytes32",
          "name": "node",
          "type": "bytes32"
        },
        {
          "indexed": false,
          "internalType": "bytes32",
          "name": "x",
          "type": "bytes32"
        },
        {
          "indexed": false,
          "internalType": "bytes32",
          "name": "y",
          "type": "bytes32"
        }
      ],
      "name": "PubkeyChanged",
      "type": "event"
    },
    {
      "anonymous": false,
      "inputs": [
        {
          "indexed": true,
          "internalType": "bytes32",
          "name": "node",
          "type": "bytes32"
        },
        {
          "indexed": true,
          "internalType": "string",
          "name": "indexedKey",
          "type": "string"
        },
        {
          "indexed": false,
          "internalType": "string",
          "name": "key",
          "type": "string"
        }
      ],
      "name": "TextChanged",
      "type": "event"
    },
    {
      "inputs": [
        {
          "internalType": "bytes32",
          "name": "node",
          "type": "bytes32"
        },
        {
          "internalType": "uint256",
          "name": "contentTypes",
          "type": "uint256"
        }
      ],
      "name": "ABI",
      "outputs": [
        {
          "internalType": "uint256",
          "name": "",
          "type": "uint256"
        },
        {
          "internalType": "bytes",
          "name": "",
          "type": "bytes"
        }
      ],
      "stateMutability": "view",
      "type": "function"
    },
    {
      "inputs": [
        {
          "internalType": "bytes32",
          "name": "node",
          "type": "bytes32"
        }
      ],
      "name": "addr",
      "outputs": [
        {
          "internalType": "address payable",
          "name": "",
          "type": "address"
        }
      ],
      "stateMutability": "view",
      "type": "function"
    },
    {
      "inputs": [
        {
          "internalType": "bytes32",
          "name": "node",
          "type": "bytes32"
        },
        {
          "internalType": "uint256",
          "name": "coinType",
          "type": "uint256"
        }
      ],
      "name": "addr",
      "outputs": [
        {
          "internalType": "bytes",
          "name": "",
          "type": "bytes"
        }
      ],
      "stateMutability": "view",
      "type": "function"
    },
    {
      "inputs": [
        {
          "internalType": "bytes32",
          "name": "node",
          "type": "bytes32"
        }
      ],
      "name": "clearDNSZone",
      "outputs": [],
      "stateMutability": "nonpayable",
      "type": "function"
    },
    {
      "inputs": [
        {
          "internalType": "bytes32",
          "name": "node",
          "type": "bytes32"
        }
      ],
      "name": "contenthash",
      "outputs": [
        {
          "internalType": "bytes",
          "name": "",
          "type": "bytes"
        }
      ],
      "stateMutability": "view",
      "type": "function"
    },
    {
      "inputs": [
        {
          "internalType": "bytes32",
          "name": "node",
          "type": "bytes32"
        },
        {
          "internalType": "bytes32",
          "name": "name",
          "type": "bytes32"
        },
        {
          "internalType": "uint16",
          "name": "resource",
          "type": "uint16"
        }
      ],
      "name": "dnsRecord",
      "outputs": [
        {
          "internalType": "bytes",
          "name": "",
          "type": "bytes"
        }
      ],
      "stateMutability": "view",
      "type": "function"
    },
    {
      "inputs": [
        {
          "internalType": "bytes32",
          "name": "node",
          "type": "bytes32"
        },
        {
          "internalType": "bytes32",
          "name": "name",
          "type": "bytes32"
        }
      ],
      "name": "hasDNSRecords",
      "outputs": [
        {
          "internalType": "bool",
          "name": "",
          "type": "bool"
        }
      ],
      "stateMutability": "view",
      "type": "function"
    },
    {
      "inputs": [
        {
          "internalType": "bytes32",
          "name": "node",
          "type": "bytes32"
        },
        {
          "internalType": "bytes4",
          "name": "interfaceID",
          "type": "bytes4"
        }
      ],
      "name": "interfaceImplementer",
      "outputs": [
        {
          "internalType": "address",
          "name": "",
          "type": "address"
        }
      ],
      "stateMutability": "view",
      "type": "function"
    },
    {
      "inputs": [
        {
          "internalType": "address",
          "name": "account",
          "type": "address"
        },
        {
          "internalType": "address",
          "name": "operator",
          "type": "address"
        }
      ],
      "name": "isApprovedForAll",
      "outputs": [
        {
          "internalType": "bool",
          "name": "",
          "type": "bool"
        }
      ],
      "stateMutability": "view",
      "type": "function"
    },
    {
      "inputs": [
        {
          "internalType": "bytes[]",
          "name": "data",
          "type": "bytes[]"
        }
      ],
      "name": "multicall",
      "outputs": [
        {
          "internalType": "bytes[]",
          "name": "results",
          "type": "bytes[]"
        }
      ],
      "stateMutability": "nonpayable",
      "type": "function"
    },
    {
      "inputs": [
        {
          "internalType": "bytes32",
          "name": "node",
          "type": "bytes32"
        }
      ],
      "name": "name",
      "outputs": [
        {
          "internalType": "string",
          "name": "",
          "type": "string"
        }
      ],
      "stateMutability": "view",
      "type": "function"
    },
    {
      "inputs": [
        {
          "internalType": "bytes32",
          "name": "node",
          "type": "bytes32"
        }
      ],
      "name": "pubkey",
      "outputs": [
        {
          "internalType": "bytes32",
          "name": "x",
          "type": "bytes32"
        },
        {
          "internalType": "bytes32",
          "name": "y",
          "type": "bytes32"
        }
      ],
      "stateMutability": "view",
      "type": "function"
    },
    {
      "inputs": [
        {
          "internalType": "bytes32",
          "name": "node",
          "type": "bytes32"
        },
        {
          "internalType": "uint256",
          "name": "contentType",
          "type": "uint256"
        },
        {
          "internalType": "bytes",
          "name": "data",
          "type": "bytes"
        }
      ],
      "name": "setABI",
      "outputs": [],
      "stateMutability": "nonpayable",
      "type": "function"
    },
    {
      "inputs": [
        {
          "internalType": "bytes32",
          "name": "node",
          "type": "bytes32"
        },
        {
          "internalType": "uint256",
          "name": "coinType",
          "type": "uint256"
        },
        {
          "internalType": "bytes",
          "name": "a",
          "type": "bytes"
        }
      ],
      "name": "setAddr",
      "outputs": [],
      "stateMutability": "nonpayable",
      "type": "function"
    },
    {
      "inputs": [
        {
          "internalType": "bytes32",
          "name": "node",
          "type": "bytes32"
        },
        {
          "internalType": "address",
          "name": "a",
          "type": "address"
        }
      ],
      "name": "setAddr",
      "outputs": [],
      "stateMutability": "nonpayable",
      "type": "function"
    },
    {
      "inputs": [
        {
          "internalType": "address",
          "name": "operator",
          "type": "address"
        },
        {
          "internalType": "bool",
          "name": "approved",
          "type": "bool"
        }
      ],
      "name": "setApprovalForAll",
      "outputs": [],
      "stateMutability": "nonpayable",
      "type": "function"
    },
    {
      "inputs": [
        {
          "internalType": "bytes32",
          "name": "node",
          "type": "bytes32"
        },
        {
          "internalType": "bytes",
          "name": "hash",
          "type": "bytes"
        }
      ],
      "name": "setContenthash",
      "outputs": [],
      "stateMutability": "nonpayable",
      "type": "function"
    },
    {
      "inputs": [
        {
          "internalType": "bytes32",
          "name": "node",
          "type": "bytes32"
        },
        {
          "internalType": "bytes",
          "name": "data",
          "type": "bytes"
        }
      ],
      "name": "setDNSRecords",
      "outputs": [],
      "stateMutability": "nonpayable",
      "type": "function"
    },
    {
      "inputs": [
        {
          "internalType": "bytes32",
          "name": "node",
          "type": "bytes32"
        },
        {
          "internalType": "bytes4",
          "name": "interfaceID",
          "type": "bytes4"
        },
        {
          "internalType": "address",
          "name": "implementer",
          "type": "address"
        }
      ],
      "name": "setInterface",
      "outputs": [],
      "stateMutability": "nonpayable",
      "type": "function"
    },
    {
      "inputs": [
        {
          "internalType": "bytes32",
          "name": "node",
          "type": "bytes32"
        },
        {
          "internalType": "string",
          "name": "newName",
          "type": "string"
        }
      ],
      "name": "setName",
      "outputs": [],
      "stateMutability": "nonpayable",
      "type": "function"
    },
    {
      "inputs": [
        {
          "internalType": "bytes32",
          "name": "node",
          "type": "bytes32"
        },
        {
          "internalType": "bytes32",
          "name": "x",
          "type": "bytes32"
        },
        {
          "internalType": "bytes32",
          "name": "y",
          "type": "bytes32"
        }
      ],
      "name": "setPubkey",
      "outputs": [],
      "stateMutability": "nonpayable",
      "type": "function"
    },
    {
      "inputs": [
        {
          "internalType": "bytes32",
          "name": "node",
          "type": "bytes32"
        },
        {
          "internalType": "string",
          "name": "key",
          "type": "string"
        },
        {
          "internalType": "string",
          "name": "value",
          "type": "string"
        }
      ],
      "name": "setText",
      "outputs": [],
      "stateMutability": "nonpayable",
      "type": "function"
    },
    {
      "inputs": [
        {
          "internalType": "bytes32",
          "name": "node",
          "type": "bytes32"
        },
        {
          "internalType": "bytes",
          "name": "hash",
          "type": "bytes"
        }
      ],
      "name": "setZonehash",
      "outputs": [],
      "stateMutability": "nonpayable",
      "type": "function"
    },
    {
      "inputs": [
        {
          "internalType": "bytes4",
          "name": "interfaceID",
          "type": "bytes4"
        }
      ],
      "name": "supportsInterface",
      "outputs": [
        {
          "internalType": "bool",
          "name": "",
          "type": "bool"
        }
      ],
      "stateMutability": "pure",
      "type": "function"
    },
    {
      "inputs": [
        {
          "internalType": "bytes32",
          "name": "node",
          "type": "bytes32"
        },
        {
          "internalType": "string",
          "name": "key",
          "type": "string"
        }
      ],
      "name": "text",
      "outputs": [
        {
          "internalType": "string",
          "name": "",
          "type": "string"
        }
      ],
      "stateMutability": "view",
      "type": "function"
    },
    {
      "inputs": [
        {
          "internalType": "bytes32",
          "name": "node",
          "type": "bytes32"
        }
      ],
      "name": "zonehash",
      "outputs": [
        {
          "internalType": "bytes",
          "name": "",
          "type": "bytes"
        }
      ],
      "stateMutability": "view",
      "type": "function"
    }
  ],
  "bytecode": "0x60806040523480156200001157600080fd5b50604051620045d9380380620045d9833981810160405281019062000037919062000184565b81600b60006101000a81548173ffffffffffffffffffffffffffffffffffffffff021916908373ffffffffffffffffffffffffffffffffffffffff16021790555080600c60006101000a81548173ffffffffffffffffffffffffffffffffffffffff021916908373ffffffffffffffffffffffffffffffffffffffff1602179055505050620001cb565b600080fd5b600073ffffffffffffffffffffffffffffffffffffffff82169050919050565b6000620000f382620000c6565b9050919050565b60006200010782620000e6565b9050919050565b6200011981620000fa565b81146200012557600080fd5b50565b60008151905062000139816200010e565b92915050565b60006200014c82620000e6565b9050919050565b6200015e816200013f565b81146200016a57600080fd5b50565b6000815190506200017e8162000153565b92915050565b600080604083850312156200019e576200019d620000c1565b5b6000620001ae8582860162000128565b9250506020620001c1858286016200016d565b9150509250929050565b6143fe80620001db6000396000f3fe608060405234801561001057600080fd5b506004361061018e5760003560e01c806377372213116100de578063bc1c58d111610097578063d5fa2b0011610071578063d5fa2b00146104ed578063e59d895d14610509578063e985e9c514610525578063f1cb7e06146105555761018e565b8063bc1c58d114610470578063c8690233146104a0578063ce3decdc146104d15761018e565b806377372213146103a05780638b95dd71146103bc578063a22cb465146103d8578063a8fa5682146103f4578063ac9650d814610424578063ad5780af146104545761018e565b8063304e6ade1161014b57806359d1d43c1161012557806359d1d43c146102f45780635c98042b14610324578063623195b014610354578063691f3431146103705761018e565b8063304e6ade146102785780633b3b57de146102945780634cbf6ba4146102c45761018e565b806301ffc9a7146101935780630af179d7146101c357806310f13a8c146101df578063124a319c146101fb5780632203ab561461022b57806329cd62ea1461025c575b600080fd5b6101ad60048036038101906101a89190612cc7565b610585565b6040516101ba9190612d0f565b60405180910390f35b6101dd60048036038101906101d89190612dc5565b6105ff565b005b6101f960048036038101906101f49190612e7b565b610830565b005b61021560048036038101906102109190612f10565b6108de565b6040516102229190612f91565b60405180910390f35b61024560048036038101906102409190612fe2565b610cee565b6040516102539291906130c1565b60405180910390f35b610276600480360381019061027191906130f1565b610e22565b005b610292600480360381019061028d9190612dc5565b610eb4565b005b6102ae60048036038101906102a99190613144565b610f2a565b6040516102bb9190613192565b60405180910390f35b6102de60048036038101906102d991906131ad565b610f5f565b6040516102eb9190612d0f565b60405180910390f35b61030e600480360381019061030991906131ed565b610fc7565b60405161031b91906132a2565b60405180910390f35b61033e60048036038101906103399190613144565b61108c565b60405161034b91906132c4565b60405180910390f35b61036e600480360381019061036991906132e6565b611131565b005b61038a60048036038101906103859190613144565b6111c7565b60405161039791906132a2565b60405180910390f35b6103ba60048036038101906103b591906131ed565b61126c565b005b6103d660048036038101906103d1919061348a565b6112e2565b005b6103f260048036038101906103ed9190613551565b6113b0565b005b61040e600480360381019061040991906135cb565b61151b565b60405161041b91906132c4565b60405180910390f35b61043e60048036038101906104399190613674565b611610565b60405161044b91906137cd565b60405180910390f35b61046e60048036038101906104699190613144565b61174a565b005b61048a60048036038101906104859190613144565b6117b7565b60405161049791906132c4565b60405180910390f35b6104ba60048036038101906104b59190613144565b61185c565b6040516104c89291906137fe565b60405180910390f35b6104eb60048036038101906104e69190612dc5565b611896565b005b61050760048036038101906105029190613827565b6119af565b005b610523600480360381019061051e9190613867565b6119db565b005b61053f600480360381019061053a91906138ba565b611aed565b60405161054c9190612d0f565b60405180910390f35b61056f600480360381019061056a9190612fe2565b611b81565b60405161057c91906132c4565b60405180910390f35b60007fac9650d8000000000000000000000000000000000000000000000000000000007bffffffffffffffffffffffffffffffffffffffffffffffffffffffff1916827bffffffffffffffffffffffffffffffffffffffffffffffffffffffff191614806105f857506105f782611c38565b5b9050919050565b8261060981611cb2565b61061257600080fd5b60008060608060008061067360008a8a8080601f016020809104026020016040519081016040528093929190818152602001838380828437600081840152601f19601f82011690508083019250505050505050611e9290919063ffffffff16565b90505b61067f81611ebc565b6107b45760008661ffff16036106da578060400151955061069f81611ed2565b9350836040516020016106b29190613936565b6040516020818303038152906040528051906020012091506106d381611f09565b92506107a6565b60006106e582611ed2565b9050816040015161ffff168761ffff1614158061071257506107108186611f4290919063ffffffff16565b155b156107a45761077d8b86898d8d8080601f016020809104026020016040519081016040528093929190818152602001838380828437600081840152601f19601f820116905080830192505050505050508a8b8860200151610773919061397c565b60008b5114611f69565b8160400151965081602001519550809450848051906020012092506107a182611f09565b93505b505b6107af8161228c565b610676565b50600083511115610825576108248984878b8b8080601f016020809104026020016040519081016040528093929190818152602001838380828437600081840152601f19601f8201169050808301925050505050505088898e8e905061081a919061397c565b6000895114611f69565b5b505050505050505050565b8461083a81611cb2565b61084357600080fd5b8282600a600089815260200190815260200160002087876040516108689291906139e0565b90815260200160405180910390209182610883929190613c10565b5084846040516108949291906139e0565b6040518091039020867fd8c9334b1a9c2f9da342a0a2b32629c1a229b6445dad78947f674b44444a755087876040516108ce929190613d0d565b60405180910390a3505050505050565b600080600760008581526020019081526020016000206000847bffffffffffffffffffffffffffffffffffffffffffffffffffffffff19167bffffffffffffffffffffffffffffffffffffffffffffffffffffffff1916815260200190815260200160002060009054906101000a900473ffffffffffffffffffffffffffffffffffffffff169050600073ffffffffffffffffffffffffffffffffffffffff168173ffffffffffffffffffffffffffffffffffffffff16146109a35780915050610ce8565b60006109ae85610f2a565b9050600073ffffffffffffffffffffffffffffffffffffffff168173ffffffffffffffffffffffffffffffffffffffff16036109ef57600092505050610ce8565b6000808273ffffffffffffffffffffffffffffffffffffffff167f01ffc9a700000000000000000000000000000000000000000000000000000000604051602401610a3a9190613d40565b6040516020818303038152906040527f01ffc9a7000000000000000000000000000000000000000000000000000000007bffffffffffffffffffffffffffffffffffffffffffffffffffffffff19166020820180517bffffffffffffffffffffffffffffffffffffffffffffffffffffffff8381831617835250505050604051610ac49190613936565b600060405180830381855afa9150503d8060008114610aff576040519150601f19603f3d011682016040523d82523d6000602084013e610b04565b606091505b5091509150811580610b17575060208151105b80610b655750600060f81b81601f81518110610b3657610b35613d5b565b5b602001015160f81c60f81b7effffffffffffffffffffffffffffffffffffffffffffffffffffffffffffff1916145b15610b77576000945050505050610ce8565b8273ffffffffffffffffffffffffffffffffffffffff1686604051602401610b9f9190613d40565b6040516020818303038152906040527f01ffc9a7000000000000000000000000000000000000000000000000000000007bffffffffffffffffffffffffffffffffffffffffffffffffffffffff19166020820180517bffffffffffffffffffffffffffffffffffffffffffffffffffffffff8381831617835250505050604051610c299190613936565b600060405180830381855afa9150503d8060008114610c64576040519150601f19603f3d011682016040523d82523d6000602084013e610c69565b606091505b508092508193505050811580610c80575060208151105b80610cce5750600060f81b81601f81518110610c9f57610c9e613d5b565b5b602001015160f81c60f81b7effffffffffffffffffffffffffffffffffffffffffffffffffffffffffffff1916145b15610ce0576000945050505050610ce8565b829450505050505b92915050565b60006060600080600086815260200190815260200160002090506000600190505b848111610e0257600085821614158015610d47575060008260008381526020019081526020016000208054610d4390613a33565b9050115b15610df65780826000838152602001908152602001600020808054610d6b90613a33565b80601f0160208091040260200160405190810160405280929190818152602001828054610d9790613a33565b8015610de45780601f10610db957610100808354040283529160200191610de4565b820191906000526020600020905b815481529060010190602001808311610dc757829003601f168201915b50505050509050935093505050610e1b565b600181901b9050610d0f565b5060006040518060200160405280600081525092509250505b9250929050565b82610e2c81611cb2565b610e3557600080fd5b604051806040016040528084815260200183815250600960008681526020019081526020016000206000820151816000015560208201518160010155905050837f1d6f5e03d3f63eb58751986629a5439baee5079ff04f345becb66e23eb154e468484604051610ea69291906137fe565b60405180910390a250505050565b82610ebe81611cb2565b610ec757600080fd5b8282600260008781526020019081526020016000209182610ee9929190613df0565b50837fe379c1624ed7e714cc0937528a32359d69d5281337765313dba4e081b72d75788484604051610f1c929190613eed565b60405180910390a250505050565b600080610f3883603c611b81565b90506000815103610f4d576000915050610f5a565b610f56816123d2565b9150505b919050565b60008060066000858152602001908152602001600020600060046000878152602001908152602001600020548152602001908152602001600020600084815260200190815260200160002060009054906101000a900461ffff1661ffff161415905092915050565b6060600a60008581526020019081526020016000208383604051610fec9291906139e0565b9081526020016040518091039020805461100590613a33565b80601f016020809104026020016040519081016040528092919081815260200182805461103190613a33565b801561107e5780601f106110535761010080835404028352916020019161107e565b820191906000526020600020905b81548152906001019060200180831161106157829003601f168201915b505050505090509392505050565b60606003600083815260200190815260200160002080546110ac90613a33565b80601f01602080910402602001604051908101604052809291908181526020018280546110d890613a33565b80156111255780601f106110fa57610100808354040283529160200191611125565b820191906000526020600020905b81548152906001019060200180831161110857829003601f168201915b50505050509050919050565b8361113b81611cb2565b61114457600080fd5b600084600186611154919061397c565b161461115f57600080fd5b828260008088815260200190815260200160002060008781526020019081526020016000209182611191929190613df0565b5083857faa121bbeef5f32f5961a2a28966e769023910fc9479059ee3495d4c1a696efe360405160405180910390a35050505050565b60606008600083815260200190815260200160002080546111e790613a33565b80601f016020809104026020016040519081016040528092919081815260200182805461121390613a33565b80156112605780601f1061123557610100808354040283529160200191611260565b820191906000526020600020905b81548152906001019060200180831161124357829003601f168201915b50505050509050919050565b8261127681611cb2565b61127f57600080fd5b82826008600087815260200190815260200160002091826112a1929190613c10565b50837fb7d29e911041e8d9b843369e890bcb72c9388692ba48b65ac54e7214c4c348f784846040516112d4929190613d0d565b60405180910390a250505050565b826112ec81611cb2565b6112f557600080fd5b837f65412581168e88a1e60c6459d7f44ae83ad0832e670826c05a4e2476b57af75284846040516113279291906130c1565b60405180910390a2603c830361137857837f52d7d861f09ab3d26239d492e8968629f95e9e318cf0b73bfddc441522a15fd2611362846123d2565b60405161136f9190613f66565b60405180910390a25b8160016000868152602001908152602001600020600085815260200190815260200160002090816113a99190613f81565b5050505050565b8173ffffffffffffffffffffffffffffffffffffffff163373ffffffffffffffffffffffffffffffffffffffff160361141e576040517f08c379a0000000000000000000000000000000000000000000000000000000008152600401611415906140c5565b60405180910390fd5b80600d60003373ffffffffffffffffffffffffffffffffffffffff1673ffffffffffffffffffffffffffffffffffffffff16815260200190815260200160002060008473ffffffffffffffffffffffffffffffffffffffff1673ffffffffffffffffffffffffffffffffffffffff16815260200190815260200160002060006101000a81548160ff0219169083151502179055508173ffffffffffffffffffffffffffffffffffffffff163373ffffffffffffffffffffffffffffffffffffffff167f17307eab39ab6107e8899845ad3d59bd9653f200f220920489ca2b5937696c318360405161150f9190612d0f565b60405180910390a35050565b606060056000858152602001908152602001600020600060046000878152602001908152602001600020548152602001908152602001600020600084815260200190815260200160002060008361ffff1661ffff168152602001908152602001600020805461158990613a33565b80601f01602080910402602001604051908101604052809291908181526020018280546115b590613a33565b80156116025780601f106115d757610100808354040283529160200191611602565b820191906000526020600020905b8154815290600101906020018083116115e557829003601f168201915b505050505090509392505050565b60608282905067ffffffffffffffff81111561162f5761162e61335f565b5b60405190808252806020026020018201604052801561166257816020015b606081526020019060019003908161164d5790505b50905060005b83839050811015611743576000803073ffffffffffffffffffffffffffffffffffffffff168686858181106116a05761169f613d5b565b5b90506020028101906116b291906140f4565b6040516116c092919061417c565b600060405180830381855af49150503d80600081146116fb576040519150601f19603f3d011682016040523d82523d6000602084013e611700565b606091505b50915091508161170f57600080fd5b8084848151811061172357611722613d5b565b5b60200260200101819052505050808061173b90614195565b915050611668565b5092915050565b8061175481611cb2565b61175d57600080fd5b60046000838152602001908152602001600020600081548092919061178190614195565b9190505550817fb757169b8492ca2f1c6619d9d76ce22803035c3b1d5f6930dffe7b127c1a198360405160405180910390a25050565b60606002600083815260200190815260200160002080546117d790613a33565b80601f016020809104026020016040519081016040528092919081815260200182805461180390613a33565b80156118505780601f1061182557610100808354040283529160200191611850565b820191906000526020600020905b81548152906001019060200180831161183357829003601f168201915b50505050509050919050565b6000806009600084815260200190815260200160002060000154600960008581526020019081526020016000206001015491509150915091565b826118a081611cb2565b6118a957600080fd5b60006003600086815260200190815260200160002080546118c990613a33565b80601f01602080910402602001604051908101604052809291908181526020018280546118f590613a33565b80156119425780601f1061191757610100808354040283529160200191611942565b820191906000526020600020905b81548152906001019060200180831161192557829003601f168201915b50505050509050838360036000888152602001908152602001600020918261196b929190613df0565b50847f8f15ed4b723ef428f250961da8315675b507046737e19319fc1a4d81bfe87f858286866040516119a0939291906141dd565b60405180910390a25050505050565b816119b981611cb2565b6119c257600080fd5b6119d683603c6119d1856123f5565b6112e2565b505050565b826119e581611cb2565b6119ee57600080fd5b81600760008681526020019081526020016000206000857bffffffffffffffffffffffffffffffffffffffffffffffffffffffff19167bffffffffffffffffffffffffffffffffffffffffffffffffffffffff1916815260200190815260200160002060006101000a81548173ffffffffffffffffffffffffffffffffffffffff021916908373ffffffffffffffffffffffffffffffffffffffff160217905550827bffffffffffffffffffffffffffffffffffffffffffffffffffffffff1916847f7c69f06bea0bdef565b709e93a147836b0063ba2dd89f02d0b7e8d931e6a6daa84604051611adf9190612f91565b60405180910390a350505050565b6000600d60008473ffffffffffffffffffffffffffffffffffffffff1673ffffffffffffffffffffffffffffffffffffffff16815260200190815260200160002060008373ffffffffffffffffffffffffffffffffffffffff1673ffffffffffffffffffffffffffffffffffffffff16815260200190815260200160002060009054906101000a900460ff16905092915050565b60606001600084815260200190815260200160002060008381526020019081526020016000208054611bb290613a33565b80601f0160208091040260200160405190810160405280929190818152602001828054611bde90613a33565b8015611c2b5780601f10611c0057610100808354040283529160200191611c2b565b820191906000526020600020905b815481529060010190602001808311611c0e57829003601f168201915b5050505050905092915050565b60007f59d1d43c000000000000000000000000000000000000000000000000000000007bffffffffffffffffffffffffffffffffffffffffffffffffffffffff1916827bffffffffffffffffffffffffffffffffffffffffffffffffffffffff19161480611cab5750611caa82612459565b5b9050919050565b600080600b60009054906101000a900473ffffffffffffffffffffffffffffffffffffffff1673ffffffffffffffffffffffffffffffffffffffff166302571be3846040518263ffffffff1660e01b8152600401611d109190614216565b602060405180830381865afa158015611d2d573d6000803e3d6000fd5b505050506040513d601f19601f82011682018060405250810190611d519190614246565b9050600c60009054906101000a900473ffffffffffffffffffffffffffffffffffffffff1673ffffffffffffffffffffffffffffffffffffffff168173ffffffffffffffffffffffffffffffffffffffff1603611e4a57600c60009054906101000a900473ffffffffffffffffffffffffffffffffffffffff1673ffffffffffffffffffffffffffffffffffffffff16636352211e8460001c6040518263ffffffff1660e01b8152600401611e069190614273565b602060405180830381865afa158015611e23573d6000803e3d6000fd5b505050506040513d601f19601f82011682018060405250810190611e479190614246565b90505b3373ffffffffffffffffffffffffffffffffffffffff168173ffffffffffffffffffffffffffffffffffffffff161480611e8a5750611e898133611aed565b5b915050919050565b611e9a612bb3565b828160000181905250818160c0018181525050611eb68161228c565b92915050565b6000816000015151826020015110159050919050565b6060611f028260200151611eee846000015185602001516124d3565b846000015161254f9092919063ffffffff16565b9050919050565b6060611f3b8260a001518360a001518460c00151611f27919061397c565b846000015161254f9092919063ffffffff16565b9050919050565b600081518351148015611f615750611f6083600084600087516125e4565b5b905092915050565b6000600460008981526020019081526020016000205490506000878051906020012090506000611fa486868961254f9092919063ffffffff16565b90508315612116576000600560008c81526020019081526020016000206000858152602001908152602001600020600084815260200190815260200160002060008a61ffff1661ffff168152602001908152602001600020805461200790613a33565b90501461207d57600660008b815260200190815260200160002060008481526020019081526020016000206000838152602001908152602001600020600081819054906101000a900461ffff16809291906120619061428e565b91906101000a81548161ffff021916908361ffff160217905550505b600560008b81526020019081526020016000206000848152602001908152602001600020600083815260200190815260200160002060008961ffff1661ffff16815260200190815260200160002060006120d79190612bfe565b897f03528ed0c2a3ebc993b12ce3c16bb382f9c7d88ef7d8a1bf290eaf35955a12078a8a6040516121099291906142c6565b60405180910390a2612280565b6000600560008c81526020019081526020016000206000858152602001908152602001600020600084815260200190815260200160002060008a61ffff1661ffff168152602001908152602001600020805461217190613a33565b9050036121e757600660008b815260200190815260200160002060008481526020019081526020016000206000838152602001908152602001600020600081819054906101000a900461ffff16809291906121cb906142f6565b91906101000a81548161ffff021916908361ffff160217905550505b80600560008c81526020019081526020016000206000858152602001908152602001600020600084815260200190815260200160002060008a61ffff1661ffff16815260200190815260200160002090816122429190613f81565b50897f52a608b3303a48862d07a73d82fa221318c0027fbbcfb1b2329bface3f19ff2b8a8a8460405161227793929190614320565b60405180910390a25b50505050505050505050565b8060c00151816020018181525050806000015151816020015110156123cf5760006122bf826000015183602001516124d3565b82602001516122ce9190614365565b90506122e781836000015161260890919063ffffffff16565b826040019061ffff16908161ffff16815250506002816123079190614365565b905061232081836000015161260890919063ffffffff16565b826060019061ffff16908161ffff16815250506002816123409190614365565b905061235981836000015161263790919063ffffffff16565b826080019063ffffffff16908163ffffffff168152505060048161237d9190614365565b9050600061239882846000015161260890919063ffffffff16565b61ffff1690506002826123ab9190614365565b9150818360a001818152505080826123c39190614365565b8360c001818152505050505b50565b600060148251146123e257600080fd5b600c6101000a6020830151049050919050565b6060601467ffffffffffffffff8111156124125761241161335f565b5b6040519080825280601f01601f1916602001820160405280156124445781602001600182028036833780820191505090505b509050600c6101000a82026020820152919050565b60007fc8690233000000000000000000000000000000000000000000000000000000007bffffffffffffffffffffffffffffffffffffffffffffffffffffffff1916827bffffffffffffffffffffffffffffffffffffffffffffffffffffffff191614806124cc57506124cb82612668565b5b9050919050565b6000808290505b60011561253a57835181106124f2576124f1614399565b5b600061250782866126e290919063ffffffff16565b60ff1690506001816125199190614365565b826125249190614365565b915060008103612534575061253a565b506124da565b8281612546919061397c565b91505092915050565b60608351828461255f9190614365565b111561256a57600080fd5b60008267ffffffffffffffff8111156125865761258561335f565b5b6040519080825280601f01601f1916602001820160405280156125b85781602001600182028036833780820191505090505b50905060008060208301915085602088010190506125d782828761270d565b8293505050509392505050565b60006125f1848484612771565b6125fc878785612771565b14905095945050505050565b600082516002836126199190614365565b111561262457600080fd5b61ffff8260028501015116905092915050565b600082516004836126489190614365565b111561265357600080fd5b63ffffffff8260048501015116905092915050565b60007f691f3431000000000000000000000000000000000000000000000000000000007bffffffffffffffffffffffffffffffffffffffffffffffffffffffff1916827bffffffffffffffffffffffffffffffffffffffffffffffffffffffff191614806126db57506126da8261279d565b5b9050919050565b60008282815181106126f7576126f6613d5b565b5b602001015160f81c60f81b60f81c905092915050565b5b6020811061274c57815183526020836127279190614365565b92506020826127369190614365565b9150602081612745919061397c565b905061270e565b60006001826020036101000a0390508019835116818551168181178652505050505050565b6000835182846127819190614365565b111561278c57600080fd5b818360208601012090509392505050565b60007f124a319c000000000000000000000000000000000000000000000000000000007bffffffffffffffffffffffffffffffffffffffffffffffffffffffff1916827bffffffffffffffffffffffffffffffffffffffffffffffffffffffff19161480612810575061280f82612817565b5b9050919050565b60007fa8fa5682000000000000000000000000000000000000000000000000000000007bffffffffffffffffffffffffffffffffffffffffffffffffffffffff1916827bffffffffffffffffffffffffffffffffffffffffffffffffffffffff191614806128e257507f5c98042b000000000000000000000000000000000000000000000000000000007bffffffffffffffffffffffffffffffffffffffffffffffffffffffff1916827bffffffffffffffffffffffffffffffffffffffffffffffffffffffff1916145b806128f257506128f1826128f9565b5b9050919050565b60007fbc1c58d1000000000000000000000000000000000000000000000000000000007bffffffffffffffffffffffffffffffffffffffffffffffffffffffff1916827bffffffffffffffffffffffffffffffffffffffffffffffffffffffff1916148061296c575061296b82612973565b5b9050919050565b60007f3b3b57de000000000000000000000000000000000000000000000000000000007bffffffffffffffffffffffffffffffffffffffffffffffffffffffff1916827bffffffffffffffffffffffffffffffffffffffffffffffffffffffff19161480612a3e57507ff1cb7e06000000000000000000000000000000000000000000000000000000007bffffffffffffffffffffffffffffffffffffffffffffffffffffffff1916827bffffffffffffffffffffffffffffffffffffffffffffffffffffffff1916145b80612a4e5750612a4d82612a55565b5b9050919050565b60007f2203ab56000000000000000000000000000000000000000000000000000000007bffffffffffffffffffffffffffffffffffffffffffffffffffffffff1916827bffffffffffffffffffffffffffffffffffffffffffffffffffffffff19161480612ac85750612ac782612acf565b5b9050919050565b60007fac9650d8000000000000000000000000000000000000000000000000000000007bffffffffffffffffffffffffffffffffffffffffffffffffffffffff1916827bffffffffffffffffffffffffffffffffffffffffffffffffffffffff19161480612b425750612b4182612b49565b5b9050919050565b60007f01ffc9a7000000000000000000000000000000000000000000000000000000007bffffffffffffffffffffffffffffffffffffffffffffffffffffffff1916827bffffffffffffffffffffffffffffffffffffffffffffffffffffffff1916149050919050565b6040518060e001604052806060815260200160008152602001600061ffff168152602001600061ffff168152602001600063ffffffff16815260200160008152602001600081525090565b508054612c0a90613a33565b6000825580601f10612c1c5750612c3b565b601f016020900490600052602060002090810190612c3a9190612c3e565b5b50565b5b80821115612c57576000816000905550600101612c3f565b5090565b6000604051905090565b600080fd5b600080fd5b60007fffffffff0000000000000000000000000000000000000000000000000000000082169050919050565b612ca481612c6f565b8114612caf57600080fd5b50565b600081359050612cc181612c9b565b92915050565b600060208284031215612cdd57612cdc612c65565b5b6000612ceb84828501612cb2565b91505092915050565b60008115159050919050565b612d0981612cf4565b82525050565b6000602082019050612d246000830184612d00565b92915050565b6000819050919050565b612d3d81612d2a565b8114612d4857600080fd5b50565b600081359050612d5a81612d34565b92915050565b600080fd5b600080fd5b600080fd5b60008083601f840112612d8557612d84612d60565b5b8235905067ffffffffffffffff811115612da257612da1612d65565b5b602083019150836001820283011115612dbe57612dbd612d6a565b5b9250929050565b600080600060408486031215612dde57612ddd612c65565b5b6000612dec86828701612d4b565b935050602084013567ffffffffffffffff811115612e0d57612e0c612c6a565b5b612e1986828701612d6f565b92509250509250925092565b60008083601f840112612e3b57612e3a612d60565b5b8235905067ffffffffffffffff811115612e5857612e57612d65565b5b602083019150836001820283011115612e7457612e73612d6a565b5b9250929050565b600080600080600060608688031215612e9757612e96612c65565b5b6000612ea588828901612d4b565b955050602086013567ffffffffffffffff811115612ec657612ec5612c6a565b5b612ed288828901612e25565b9450945050604086013567ffffffffffffffff811115612ef557612ef4612c6a565b5b612f0188828901612e25565b92509250509295509295909350565b60008060408385031215612f2757612f26612c65565b5b6000612f3585828601612d4b565b9250506020612f4685828601612cb2565b9150509250929050565b600073ffffffffffffffffffffffffffffffffffffffff82169050919050565b6000612f7b82612f50565b9050919050565b612f8b81612f70565b82525050565b6000602082019050612fa66000830184612f82565b92915050565b6000819050919050565b612fbf81612fac565b8114612fca57600080fd5b50565b600081359050612fdc81612fb6565b92915050565b60008060408385031215612ff957612ff8612c65565b5b600061300785828601612d4b565b925050602061301885828601612fcd565b9150509250929050565b61302b81612fac565b82525050565b600081519050919050565b600082825260208201905092915050565b60005b8381101561306b578082015181840152602081019050613050565b60008484015250505050565b6000601f19601f8301169050919050565b600061309382613031565b61309d818561303c565b93506130ad81856020860161304d565b6130b681613077565b840191505092915050565b60006040820190506130d66000830185613022565b81810360208301526130e88184613088565b90509392505050565b60008060006060848603121561310a57613109612c65565b5b600061311886828701612d4b565b935050602061312986828701612d4b565b925050604061313a86828701612d4b565b9150509250925092565b60006020828403121561315a57613159612c65565b5b600061316884828501612d4b565b91505092915050565b600061317c82612f50565b9050919050565b61318c81613171565b82525050565b60006020820190506131a76000830184613183565b92915050565b600080604083850312156131c4576131c3612c65565b5b60006131d285828601612d4b565b92505060206131e385828601612d4b565b9150509250929050565b60008060006040848603121561320657613205612c65565b5b600061321486828701612d4b565b935050602084013567ffffffffffffffff81111561323557613234612c6a565b5b61324186828701612e25565b92509250509250925092565b600081519050919050565b600082825260208201905092915050565b60006132748261324d565b61327e8185613258565b935061328e81856020860161304d565b61329781613077565b840191505092915050565b600060208201905081810360008301526132bc8184613269565b905092915050565b600060208201905081810360008301526132de8184613088565b905092915050565b60008060008060608587031215613300576132ff612c65565b5b600061330e87828801612d4b565b945050602061331f87828801612fcd565b935050604085013567ffffffffffffffff8111156133405761333f612c6a565b5b61334c87828801612d6f565b925092505092959194509250565b600080fd5b7f4e487b7100000000000000000000000000000000000000000000000000000000600052604160045260246000fd5b61339782613077565b810181811067ffffffffffffffff821117156133b6576133b561335f565b5b80604052505050565b60006133c9612c5b565b90506133d5828261338e565b919050565b600067ffffffffffffffff8211156133f5576133f461335f565b5b6133fe82613077565b9050602081019050919050565b82818337600083830152505050565b600061342d613428846133da565b6133bf565b9050828152602081018484840111156134495761344861335a565b5b61345484828561340b565b509392505050565b600082601f83011261347157613470612d60565b5b813561348184826020860161341a565b91505092915050565b6000806000606084860312156134a3576134a2612c65565b5b60006134b186828701612d4b565b93505060206134c286828701612fcd565b925050604084013567ffffffffffffffff8111156134e3576134e2612c6a565b5b6134ef8682870161345c565b9150509250925092565b61350281612f70565b811461350d57600080fd5b50565b60008135905061351f816134f9565b92915050565b61352e81612cf4565b811461353957600080fd5b50565b60008135905061354b81613525565b92915050565b6000806040838503121561356857613567612c65565b5b600061357685828601613510565b92505060206135878582860161353c565b9150509250929050565b600061ffff82169050919050565b6135a881613591565b81146135b357600080fd5b50565b6000813590506135c58161359f565b92915050565b6000806000606084860312156135e4576135e3612c65565b5b60006135f286828701612d4b565b935050602061360386828701612d4b565b9250506040613614868287016135b6565b9150509250925092565b60008083601f84011261363457613633612d60565b5b8235905067ffffffffffffffff81111561365157613650612d65565b5b60208301915083602082028301111561366d5761366c612d6a565b5b9250929050565b6000806020838503121561368b5761368a612c65565b5b600083013567ffffffffffffffff8111156136a9576136a8612c6a565b5b6136b58582860161361e565b92509250509250929050565b600081519050919050565b600082825260208201905092915050565b6000819050602082019050919050565b600082825260208201905092915050565b600061370982613031565b61371381856136ed565b935061372381856020860161304d565b61372c81613077565b840191505092915050565b600061374383836136fe565b905092915050565b6000602082019050919050565b6000613763826136c1565b61376d81856136cc565b93508360208202850161377f856136dd565b8060005b858110156137bb578484038952815161379c8582613737565b94506137a78361374b565b925060208a01995050600181019050613783565b50829750879550505050505092915050565b600060208201905081810360008301526137e78184613758565b905092915050565b6137f881612d2a565b82525050565b600060408201905061381360008301856137ef565b61382060208301846137ef565b9392505050565b6000806040838503121561383e5761383d612c65565b5b600061384c85828601612d4b565b925050602061385d85828601613510565b9150509250929050565b6000806000606084860312156138805761387f612c65565b5b600061388e86828701612d4b565b935050602061389f86828701612cb2565b92505060406138b086828701613510565b9150509250925092565b600080604083850312156138d1576138d0612c65565b5b60006138df85828601613510565b92505060206138f085828601613510565b9150509250929050565b600081905092915050565b600061391082613031565b61391a81856138fa565b935061392a81856020860161304d565b80840191505092915050565b60006139428284613905565b915081905092915050565b7f4e487b7100000000000000000000000000000000000000000000000000000000600052601160045260246000fd5b600061398782612fac565b915061399283612fac565b92508282039050818111156139aa576139a961394d565b5b92915050565b600081905092915050565b60006139c783856139b0565b93506139d483858461340b565b82840190509392505050565b60006139ed8284866139bb565b91508190509392505050565b600082905092915050565b7f4e487b7100000000000000000000000000000000000000000000000000000000600052602260045260246000fd5b60006002820490506001821680613a4b57607f821691505b602082108103613a5e57613a5d613a04565b5b50919050565b60008190508160005260206000209050919050565b60006020601f8301049050919050565b600082821b905092915050565b600060088302613ac67fffffffffffffffffffffffffffffffffffffffffffffffffffffffffffffffff82613a89565b613ad08683613a89565b95508019841693508086168417925050509392505050565b6000819050919050565b6000613b0d613b08613b0384612fac565b613ae8565b612fac565b9050919050565b6000819050919050565b613b2783613af2565b613b3b613b3382613b14565b848454613a96565b825550505050565b600090565b613b50613b43565b613b5b818484613b1e565b505050565b5b81811015613b7f57613b74600082613b48565b600181019050613b61565b5050565b601f821115613bc457613b9581613a64565b613b9e84613a79565b81016020851015613bad578190505b613bc1613bb985613a79565b830182613b60565b50505b505050565b600082821c905092915050565b6000613be760001984600802613bc9565b1980831691505092915050565b6000613c008383613bd6565b9150826002028217905092915050565b613c1a83836139f9565b67ffffffffffffffff811115613c3357613c3261335f565b5b613c3d8254613a33565b613c48828285613b83565b6000601f831160018114613c775760008415613c65578287013590505b613c6f8582613bf4565b865550613cd7565b601f198416613c8586613a64565b60005b82811015613cad57848901358255600182019150602085019450602081019050613c88565b86831015613cca5784890135613cc6601f891682613bd6565b8355505b6001600288020188555050505b50505050505050565b6000613cec8385613258565b9350613cf983858461340b565b613d0283613077565b840190509392505050565b60006020820190508181036000830152613d28818486613ce0565b90509392505050565b613d3a81612c6f565b82525050565b6000602082019050613d556000830184613d31565b92915050565b7f4e487b7100000000000000000000000000000000000000000000000000000000600052603260045260246000fd5b600082905092915050565b60008190508160005260206000209050919050565b601f821115613deb57613dbc81613d95565b613dc584613a79565b81016020851015613dd4578190505b613de8613de085613a79565b830182613b60565b50505b505050565b613dfa8383613d8a565b67ffffffffffffffff811115613e1357613e1261335f565b5b613e1d8254613a33565b613e28828285613daa565b6000601f831160018114613e575760008415613e45578287013590505b613e4f8582613bf4565b865550613eb7565b601f198416613e6586613d95565b60005b82811015613e8d57848901358255600182019150602085019450602081019050613e68565b86831015613eaa5784890135613ea6601f891682613bd6565b8355505b6001600288020188555050505b50505050505050565b6000613ecc838561303c565b9350613ed983858461340b565b613ee283613077565b840190509392505050565b60006020820190508181036000830152613f08818486613ec0565b90509392505050565b6000613f2c613f27613f2284612f50565b613ae8565b612f50565b9050919050565b6000613f3e82613f11565b9050919050565b6000613f5082613f33565b9050919050565b613f6081613f45565b82525050565b6000602082019050613f7b6000830184613f57565b92915050565b613f8a82613031565b67ffffffffffffffff811115613fa357613fa261335f565b5b613fad8254613a33565b613fb8828285613daa565b600060209050601f831160018114613feb5760008415613fd9578287015190505b613fe38582613bf4565b86555061404b565b601f198416613ff986613d95565b60005b8281101561402157848901518255600182019150602085019450602081019050613ffc565b8683101561403e578489015161403a601f891682613bd6565b8355505b6001600288020188555050505b505050505050565b7f455243313135353a2073657474696e6720617070726f76616c2073746174757360008201527f20666f722073656c660000000000000000000000000000000000000000000000602082015250565b60006140af602983613258565b91506140ba82614053565b604082019050919050565b600060208201905081810360008301526140de816140a2565b9050919050565b600080fd5b600080fd5b600080fd5b60008083356001602003843603038112614111576141106140e5565b5b80840192508235915067ffffffffffffffff821115614133576141326140ea565b5b60208301925060018202360383131561414f5761414e6140ef565b5b509250929050565b600061416383856138fa565b935061417083858461340b565b82840190509392505050565b6000614189828486614157565b91508190509392505050565b60006141a082612fac565b91507fffffffffffffffffffffffffffffffffffffffffffffffffffffffffffffffff82036141d2576141d161394d565b5b600182019050919050565b600060408201905081810360008301526141f78186613088565b9050818103602083015261420c818486613ec0565b9050949350505050565b600060208201905061422b60008301846137ef565b92915050565b600081519050614240816134f9565b92915050565b60006020828403121561425c5761425b612c65565b5b600061426a84828501614231565b91505092915050565b60006020820190506142886000830184613022565b92915050565b600061429982613591565b9150600082036142ac576142ab61394d565b5b600182039050919050565b6142c081613591565b82525050565b600060408201905081810360008301526142e08185613088565b90506142ef60208301846142b7565b9392505050565b600061430182613591565b915061ffff82036143155761431461394d565b5b600182019050919050565b6000606082019050818103600083015261433a8186613088565b905061434960208301856142b7565b818103604083015261435b8184613088565b9050949350505050565b600061437082612fac565b915061437b83612fac565b92508282019050808211156143935761439261394d565b5b92915050565b7f4e487b7100000000000000000000000000000000000000000000000000000000600052600160045260246000fdfea2646970667358221220901eeafb070d9caa26e1785e7b7162ba64d914a092ad4bf9e18707d314826eae64736f6c63430008130033",
  "linkReferences": {},
  "deployedLinkReferences": {}
}