{
  "contractName": "ENS",
  "abi": [
    {
      "inputs": [],
      "stateMutability": "nonpayable",
      "type": "constructor"
    },
    {
      "inputs": [
        {
          "internalType": "string",
          "name": "_name",
          "type": "string"
        },
        {
          "internalType": "address",
          "name": "_address",
          "type": "address"
        }
      ],
      "name": "register",
      "outputs": [],
      "stateMutability": "nonpayable",
      "type": "function"
    },
    {
      "inputs": [
        {
          "internalType": "string",
          "name": "_name",
          "type": "string"
        }
      ],
      "name": "resolve",
      "outputs": [
        {
          "internalType": "address",
          "name": "",
          "type": "address"
        }
      ],
      "stateMutability": "view",
      "type": "function"
    }
  ],
  "bytecode": "0x608060405234801561001057600080fd5b50600080604051610020906100c8565b908152602001604051809103902060006101000a81548173ffffffffffffffffffffffffffffffffffffffff021916908373ffffffffffffffffffffffffffffffffffffffff1602179055506100dd565b600081905092915050565b7f696e69742e657468000000000000000000000000000000000000000000000000600082015250565b60006100b2600883610071565b91506100bd8261007c565b600882019050919050565b60006100d3826100a5565b9150819050919050565b610762806100ec6000396000f3fe608060405234801561001057600080fd5b50600436106100365760003560e01c80631e59c5291461003b578063461a447814610057575b600080fd5b610055600480360381019061005091906104c6565b610087565b005b610071600480360381019061006c9190610522565b6101d7565b60405161007e919061057a565b60405180910390f35b600080836040516100989190610606565b908152602001604051809103902060009054906101000a900473ffffffffffffffffffffffffffffffffffffffff1690506000836040516100d99190610606565b908152602001604051809103902060009054906101000a900473ffffffffffffffffffffffffffffffffffffffff1673ffffffffffffffffffffffffffffffffffffffff168173ffffffffffffffffffffffffffffffffffffffff1614610175576040517f08c379a000000000000000000000000000000000000000000000000000000000815260040161016c906106a0565b60405180910390fd5b816000846040516101869190610606565b908152602001604051809103902060006101000a81548173ffffffffffffffffffffffffffffffffffffffff021916908373ffffffffffffffffffffffffffffffffffffffff160217905550505050565b6000806000836040516101ea9190610606565b908152602001604051809103902060009054906101000a900473ffffffffffffffffffffffffffffffffffffffff16905060008360405161022b9190610606565b908152602001604051809103902060009054906101000a900473ffffffffffffffffffffffffffffffffffffffff1673ffffffffffffffffffffffffffffffffffffffff168173ffffffffffffffffffffffffffffffffffffffff16146102c7576040517f08c379a00000000000000000000000000000000000000000000000000000000081526004016102be9061070c565b60405180910390fd5b6000836040516102d79190610606565b908152602001604051809103902060009054906101000a900473ffffffffffffffffffffffffffffffffffffffff16915050919050565b6000604051905090565b600080fd5b600080fd5b600080fd5b600080fd5b6000601f19601f8301169050919050565b7f4e487b7100000000000000000000000000000000000000000000000000000000600052604160045260246000fd5b6103758261032c565b810181811067ffffffffffffffff821117156103945761039361033d565b5b80604052505050565b60006103a761030e565b90506103b3828261036c565b919050565b600067ffffffffffffffff8211156103d3576103d261033d565b5b6103dc8261032c565b9050602081019050919050565b82818337600083830152505050565b600061040b610406846103b8565b61039d565b90508281526020810184848401111561042757610426610327565b5b6104328482856103e9565b509392505050565b600082601f83011261044f5761044e610322565b5b813561045f8482602086016103f8565b91505092915050565b600073ffffffffffffffffffffffffffffffffffffffff82169050919050565b600061049382610468565b9050919050565b6104a381610488565b81146104ae57600080fd5b50565b6000813590506104c08161049a565b92915050565b600080604083850312156104dd576104dc610318565b5b600083013567ffffffffffffffff8111156104fb576104fa61031d565b5b6105078582860161043a565b9250506020610518858286016104b1565b9150509250929050565b60006020828403121561053857610537610318565b5b600082013567ffffffffffffffff8111156105565761055561031d565b5b6105628482850161043a565b91505092915050565b61057481610488565b82525050565b600060208201905061058f600083018461056b565b92915050565b600081519050919050565b600081905092915050565b60005b838110156105c95780820151818401526020810190506105ae565b60008484015250505050565b60006105e082610595565b6105ea81856105a0565b93506105fa8185602086016105ab565b80840191505092915050565b600061061282846105d5565b915081905092915050565b600082825260208201905092915050565b7f54686973206164647265737320697320616c726561647920726567697374657260008201527f65642e0000000000000000000000000000000000000000000000000000000000602082015250565b600061068a60238361061d565b91506106958261062e565b604082019050919050565b600060208201905081810360008301526106b98161067d565b9050919050565b7f5468697320697320616e20756e7265676973746572656420616464726573732e600082015250565b60006106f660208361061d565b9150610701826106c0565b602082019050919050565b60006020820190508181036000830152610725816106e9565b905091905056fea2646970667358221220b802f841074c3f34344b5ccc6fa0932b6d3d605cadaeb613eb32448abac6c11a64736f6c63430008110033",
  "immutableReferences": {},
  "source": "pragma solidity ^0.8.0;\n\ncontract ENS {\n  // ENS  \n  mapping(string => address) addresses;\n\n  // ENS  \n  constructor() {\n    // ENS    .\n    addresses[\"init.eth\"] = address(0x0);\n  }\n\n  // ENS    \n  function register(string memory _name, address _address) public {\n    address addr = addresses[_name];\n    //      .\n    require(addr == addresses[_name], \"This address is already registered.\");\n\n    //   .\n    addresses[_name] = _address;\n  }\n\n  // ENS    \n  function resolve(string memory _name) public view returns (address) {\n    address addr = addresses[_name];\n    //     .\n    require(addr == addresses[_name], \"This is an unregistered address.\");\n\n    //     .\n    return addresses[_name];\n  }\n}",
  "sourcePath": "/Users/instant/Desktop/ens_test/contracts/ENS.sol",
  "compiler": {
    "name": "solc",
    "version": "0.8.17+commit.8df45f5f.Emscripten.clang"
  },
  "schemaVersion": "3.4.15",
  "updatedAt": "2023-08-14T15:04:17.257Z",
  "devdoc": {
    "kind": "dev",
    "methods": {},
    "version": 1
  },
  "userdoc": {
    "kind": "user",
    "methods": {},
    "version": 1
  }
}