{
  "contractName": "KNS",
  "abi": [
    {
      "inputs": [
        {
          "internalType": "uint256",
          "name": "",
          "type": "uint256"
        }
      ],
      "name": "allNames",
      "outputs": [
        {
          "internalType": "string",
          "name": "",
          "type": "string"
        }
      ],
      "stateMutability": "view",
      "type": "function",
      "constant": true
    },
    {
      "inputs": [
        {
          "internalType": "uint256",
          "name": "",
          "type": "uint256"
        }
      ],
      "name": "allTxtRecords",
      "outputs": [
        {
          "internalType": "string",
          "name": "",
          "type": "string"
        }
      ],
      "stateMutability": "view",
      "type": "function",
      "constant": true
    },
    {
      "inputs": [
        {
          "internalType": "string",
          "name": "_name",
          "type": "string"
        },
        {
          "internalType": "address",
          "name": "_address",
          "type": "address"
        }
      ],
      "name": "register",
      "outputs": [
        {
          "internalType": "bool",
          "name": "",
          "type": "bool"
        }
      ],
      "stateMutability": "nonpayable",
      "type": "function"
    },
    {
      "inputs": [
        {
          "internalType": "string",
          "name": "_name",
          "type": "string"
        }
      ],
      "name": "fromNameToAddress",
      "outputs": [
        {
          "internalType": "address",
          "name": "",
          "type": "address"
        }
      ],
      "stateMutability": "view",
      "type": "function",
      "constant": true
    },
    {
      "inputs": [
        {
          "internalType": "address",
          "name": "_address",
          "type": "address"
        }
      ],
      "name": "fromAddressToName",
      "outputs": [
        {
          "internalType": "string",
          "name": "",
          "type": "string"
        }
      ],
      "stateMutability": "view",
      "type": "function",
      "constant": true
    },
    {
      "inputs": [
        {
          "internalType": "string",
          "name": "_name",
          "type": "string"
        },
        {
          "internalType": "string",
          "name": "_txtRecordURI",
          "type": "string"
        }
      ],
      "name": "registerTxtRecord",
      "outputs": [
        {
          "internalType": "bool",
          "name": "",
          "type": "bool"
        }
      ],
      "stateMutability": "nonpayable",
      "type": "function"
    },
    {
      "inputs": [
        {
          "internalType": "string",
          "name": "_name",
          "type": "string"
        }
      ],
      "name": "checkTxtRecord",
      "outputs": [
        {
          "internalType": "string",
          "name": "",
          "type": "string"
        }
      ],
      "stateMutability": "view",
      "type": "function",
      "constant": true
    }
  ],
  "bytecode": "0x608060405234801561001057600080fd5b5061168f806100206000396000f3fe608060405234801561001057600080fd5b506004361061007d5760003560e01c806387765cf21161005b57806387765cf21461011257806391c2eed1146101425780639f8fc0e414610172578063b59bc724146101a25761007d565b80631e59c5291461008257806334e346b9146100b25780637972d884146100e2575b600080fd5b61009c60048036038101906100979190610cc8565b6101d2565b6040516100a99190610d3f565b60405180910390f35b6100cc60048036038101906100c79190610d90565b6103f7565b6040516100d99190610e3c565b60405180910390f35b6100fc60048036038101906100f79190610e5e565b6104a3565b6040516101099190610e3c565b60405180910390f35b61012c60048036038101906101279190610d90565b610605565b6040516101399190610e3c565b60405180910390f35b61015c60048036038101906101579190610e8b565b6106b1565b6040516101699190610e3c565b60405180910390f35b61018c60048036038101906101879190610e8b565b6108a5565b6040516101999190610ee3565b60405180910390f35b6101bc60048036038101906101b79190610efe565b6109a9565b6040516101c99190610d3f565b60405180910390f35b60008073ffffffffffffffffffffffffffffffffffffffff166002846040516101fb9190610fb2565b908152602001604051809103902060009054906101000a900473ffffffffffffffffffffffffffffffffffffffff1673ffffffffffffffffffffffffffffffffffffffff1614610280576040517f08c379a000000000000000000000000000000000000000000000000000000000815260040161027790611015565b60405180910390fd5b6000600360008473ffffffffffffffffffffffffffffffffffffffff1673ffffffffffffffffffffffffffffffffffffffff16815260200190815260200160002080546102cc90611064565b90501461030e576040517f08c379a000000000000000000000000000000000000000000000000000000000815260040161030590611107565b60405180910390fd5b8160028460405161031f9190610fb2565b908152602001604051809103902060006101000a81548173ffffffffffffffffffffffffffffffffffffffff021916908373ffffffffffffffffffffffffffffffffffffffff16021790555082600360008473ffffffffffffffffffffffffffffffffffffffff1673ffffffffffffffffffffffffffffffffffffffff16815260200190815260200160002090816103b791906112d3565b506000839080600181540180825580915050600190039060005260206000200160009091909190915090816103ec91906112d3565b506001905092915050565b6001818154811061040757600080fd5b90600052602060002001600091509050805461042290611064565b80601f016020809104026020016040519081016040528092919081815260200182805461044e90611064565b801561049b5780601f106104705761010080835404028352916020019161049b565b820191906000526020600020905b81548152906001019060200180831161047e57829003601f168201915b505050505081565b606060008080549050116104ec576040517f08c379a00000000000000000000000000000000000000000000000000000000081526004016104e390611417565b60405180910390fd5b6000600360008473ffffffffffffffffffffffffffffffffffffffff1673ffffffffffffffffffffffffffffffffffffffff168152602001908152602001600020805461053890611064565b80601f016020809104026020016040519081016040528092919081815260200182805461056490611064565b80156105b15780601f10610586576101008083540402835291602001916105b1565b820191906000526020600020905b81548152906001019060200180831161059457829003601f168201915b5050505050905060008151036105fc576040517f08c379a00000000000000000000000000000000000000000000000000000000081526004016105f3906114a9565b60405180910390fd5b80915050919050565b6000818154811061061557600080fd5b90600052602060002001600091509050805461063090611064565b80601f016020809104026020016040519081016040528092919081815260200182805461065c90611064565b80156106a95780601f1061067e576101008083540402835291602001916106a9565b820191906000526020600020905b81548152906001019060200180831161068c57829003601f168201915b505050505081565b606060008080549050116106fa576040517f08c379a00000000000000000000000000000000000000000000000000000000081526004016106f190611417565b60405180910390fd5b600060028360405161070c9190610fb2565b908152602001604051809103902060009054906101000a900473ffffffffffffffffffffffffffffffffffffffff169050600073ffffffffffffffffffffffffffffffffffffffff168173ffffffffffffffffffffffffffffffffffffffff16036107ac576040517f08c379a00000000000000000000000000000000000000000000000000000000081526004016107a390611515565b60405180910390fd5b60006004846040516107be9190610fb2565b908152602001604051809103902080546107d790611064565b80601f016020809104026020016040519081016040528092919081815260200182805461080390611064565b80156108505780601f1061082557610100808354040283529160200191610850565b820191906000526020600020905b81548152906001019060200180831161083357829003601f168201915b50505050509050600081510361089b576040517f08c379a0000000000000000000000000000000000000000000000000000000008152600401610892906115a7565b60405180910390fd5b8092505050919050565b600080600080549050116108ee576040517f08c379a00000000000000000000000000000000000000000000000000000000081526004016108e590611417565b60405180910390fd5b60006002836040516109009190610fb2565b908152602001604051809103902060009054906101000a900473ffffffffffffffffffffffffffffffffffffffff169050600073ffffffffffffffffffffffffffffffffffffffff168173ffffffffffffffffffffffffffffffffffffffff16036109a0576040517f08c379a000000000000000000000000000000000000000000000000000000000815260040161099790611639565b60405180910390fd5b80915050919050565b600080600080549050116109f2576040517f08c379a00000000000000000000000000000000000000000000000000000000081526004016109e990611417565b60405180910390fd5b6000600284604051610a049190610fb2565b908152602001604051809103902060009054906101000a900473ffffffffffffffffffffffffffffffffffffffff169050600073ffffffffffffffffffffffffffffffffffffffff168173ffffffffffffffffffffffffffffffffffffffff1603610aa4576040517f08c379a0000000000000000000000000000000000000000000000000000000008152600401610a9b90611515565b60405180910390fd5b82600485604051610ab59190610fb2565b90815260200160405180910390209081610acf91906112d3565b50600183908060018154018082558091505060019003906000526020600020016000909190919091509081610b0491906112d3565b50600191505092915050565b6000604051905090565b600080fd5b600080fd5b600080fd5b600080fd5b6000601f19601f8301169050919050565b7f4e487b7100000000000000000000000000000000000000000000000000000000600052604160045260246000fd5b610b7782610b2e565b810181811067ffffffffffffffff82111715610b9657610b95610b3f565b5b80604052505050565b6000610ba9610b10565b9050610bb58282610b6e565b919050565b600067ffffffffffffffff821115610bd557610bd4610b3f565b5b610bde82610b2e565b9050602081019050919050565b82818337600083830152505050565b6000610c0d610c0884610bba565b610b9f565b905082815260208101848484011115610c2957610c28610b29565b5b610c34848285610beb565b509392505050565b600082601f830112610c5157610c50610b24565b5b8135610c61848260208601610bfa565b91505092915050565b600073ffffffffffffffffffffffffffffffffffffffff82169050919050565b6000610c9582610c6a565b9050919050565b610ca581610c8a565b8114610cb057600080fd5b50565b600081359050610cc281610c9c565b92915050565b60008060408385031215610cdf57610cde610b1a565b5b600083013567ffffffffffffffff811115610cfd57610cfc610b1f565b5b610d0985828601610c3c565b9250506020610d1a85828601610cb3565b9150509250929050565b60008115159050919050565b610d3981610d24565b82525050565b6000602082019050610d546000830184610d30565b92915050565b6000819050919050565b610d6d81610d5a565b8114610d7857600080fd5b50565b600081359050610d8a81610d64565b92915050565b600060208284031215610da657610da5610b1a565b5b6000610db484828501610d7b565b91505092915050565b600081519050919050565b600082825260208201905092915050565b60005b83811015610df7578082015181840152602081019050610ddc565b60008484015250505050565b6000610e0e82610dbd565b610e188185610dc8565b9350610e28818560208601610dd9565b610e3181610b2e565b840191505092915050565b60006020820190508181036000830152610e568184610e03565b905092915050565b600060208284031215610e7457610e73610b1a565b5b6000610e8284828501610cb3565b91505092915050565b600060208284031215610ea157610ea0610b1a565b5b600082013567ffffffffffffffff811115610ebf57610ebe610b1f565b5b610ecb84828501610c3c565b91505092915050565b610edd81610c8a565b82525050565b6000602082019050610ef86000830184610ed4565b92915050565b60008060408385031215610f1557610f14610b1a565b5b600083013567ffffffffffffffff811115610f3357610f32610b1f565b5b610f3f85828601610c3c565b925050602083013567ffffffffffffffff811115610f6057610f5f610b1f565b5b610f6c85828601610c3c565b9150509250929050565b600081905092915050565b6000610f8c82610dbd565b610f968185610f76565b9350610fa6818560208601610dd9565b80840191505092915050565b6000610fbe8284610f81565b915081905092915050565b7f54686973206e616d6520697320616c726561647920726567697374657265642e600082015250565b6000610fff602083610dc8565b915061100a82610fc9565b602082019050919050565b6000602082019050818103600083015261102e81610ff2565b9050919050565b7f4e487b7100000000000000000000000000000000000000000000000000000000600052602260045260246000fd5b6000600282049050600182168061107c57607f821691505b60208210810361108f5761108e611035565b5b50919050565b7f54686973206164647265737320697320616c726561647920726567697374657260008201527f65642e0000000000000000000000000000000000000000000000000000000000602082015250565b60006110f1602383610dc8565b91506110fc82611095565b604082019050919050565b60006020820190508181036000830152611120816110e4565b9050919050565b60008190508160005260206000209050919050565b60006020601f8301049050919050565b600082821b905092915050565b6000600883026111897fffffffffffffffffffffffffffffffffffffffffffffffffffffffffffffffff8261114c565b611193868361114c565b95508019841693508086168417925050509392505050565b6000819050919050565b60006111d06111cb6111c684610d5a565b6111ab565b610d5a565b9050919050565b6000819050919050565b6111ea836111b5565b6111fe6111f6826111d7565b848454611159565b825550505050565b600090565b611213611206565b61121e8184846111e1565b505050565b5b818110156112425761123760008261120b565b600181019050611224565b5050565b601f8211156112875761125881611127565b6112618461113c565b81016020851015611270578190505b61128461127c8561113c565b830182611223565b50505b505050565b600082821c905092915050565b60006112aa6000198460080261128c565b1980831691505092915050565b60006112c38383611299565b9150826002028217905092915050565b6112dc82610dbd565b67ffffffffffffffff8111156112f5576112f4610b3f565b5b6112ff8254611064565b61130a828285611246565b600060209050601f83116001811461133d576000841561132b578287015190505b61133585826112b7565b86555061139d565b601f19841661134b86611127565b60005b828110156113735784890151825560018201915060208501945060208101905061134e565b86831015611390578489015161138c601f891682611299565b8355505b6001600288020188555050505b505050505050565b7f546865726520617265206e6f207265676973746572656420616464726573736560008201527f732e000000000000000000000000000000000000000000000000000000000000602082015250565b6000611401602283610dc8565b915061140c826113a5565b604082019050919050565b60006020820190508181036000830152611430816113f4565b9050919050565b7f54686973206164647265737320697320616e20756e726567697374657265642060008201527f616464726573732e000000000000000000000000000000000000000000000000602082015250565b6000611493602883610dc8565b915061149e82611437565b604082019050919050565b600060208201905081810360008301526114c281611486565b9050919050565b7f5468697320697320616e20756e7265676973746572656420616464726573732e600082015250565b60006114ff602083610dc8565b915061150a826114c9565b602082019050919050565b6000602082019050818103600083015261152e816114f2565b9050919050565b7f5468697320697320616e20756e7265676973746572656420746578745265636f60008201527f72642e0000000000000000000000000000000000000000000000000000000000602082015250565b6000611591602383610dc8565b915061159c82611535565b604082019050919050565b600060208201905081810360008301526115c081611584565b9050919050565b7f54686973206e616d6520697320616e20756e726567697374657265642061646460008201527f726573732e000000000000000000000000000000000000000000000000000000602082015250565b6000611623602583610dc8565b915061162e826115c7565b604082019050919050565b6000602082019050818103600083015261165281611616565b905091905056fea2646970667358221220d8adbf01d8ec82b22b78b9393e5c888459467883ef81b4a1da2ff6f524be434164736f6c63430008110033",
  "immutableReferences": {},
  "source": "pragma solidity ^0.8.0;\n\ncontract KNS {\n  // KNS \n  string[] public allNames;\n  string[] public allTxtRecords;\n\n  mapping(string => address) addresses;\n  mapping(address => string) names;\n\n  // KNS   textrecord  \n  mapping(string => string) txtRecordURIs;\n\n  // \n  function register(string memory _name, address _address) public returns (bool) {\n    require(addresses[_name] == address(0), \"This name is already registered.\");\n    require(bytes(names[_address]).length == 0, \"This address is already registered.\");\n\n    addresses[_name] = _address;\n    names[_address] = _name;\n    allNames.push(_name);\n    return true;\n  }\n\n  //    \n  function fromNameToAddress(string memory _name) public view returns (address) {\n    require(allNames.length > 0, \"There are no registered addresses.\");\n\n    address _address = addresses[_name];\n    require(_address != address(0), \"This name is an unregistered address.\");\n\n    return _address;\n  }\n\n  //    \n  function fromAddressToName(address _address) public view returns (string memory) {\n    require(allNames.length > 0, \"There are no registered addresses.\");\n    string memory _name = names[_address];\n    require(bytes(_name).length != 0, \"This address is an unregistered address.\");\n\n    return _name;\n  }\n\n  // textRecord \n  function registerTxtRecord(string memory _name, string memory _txtRecordURI) public returns (bool) {\n    require(allNames.length > 0, \"There are no registered addresses.\");\n\n    address _address = addresses[_name];\n    require(_address != address(0), \"This is an unregistered address.\");\n\n    //        \n    // require(msg.sender == _address, \"This is not your address.\");\n\n    txtRecordURIs[_name] = _txtRecordURI;\n    allTxtRecords.push(_txtRecordURI);\n\n    return true;\n  }\n\n  //  textRecord \n  function checkTxtRecord(string memory _name) public view returns (string memory) {\n    require(allNames.length > 0, \"There are no registered addresses.\");\n\n    address _address = addresses[_name];\n    require(_address != address(0), \"This is an unregistered address.\");\n\n    string memory _txtRecordUri = txtRecordURIs[_name];\n    require(bytes(_txtRecordUri).length != 0, \"This is an unregistered textRecord.\");\n\n    return _txtRecordUri;\n  }\n}",
  "sourcePath": "/Users/instant/Desktop/ens_test/contracts/KNS.sol",
  "compiler": {
    "name": "solc",
    "version": "0.8.17+commit.8df45f5f.Emscripten.clang"
  },
  "schemaVersion": "3.4.15",
  "updatedAt": "2023-08-23T07:12:55.988Z",
  "networkType": "ethereum",
  "devdoc": {
    "kind": "dev",
    "methods": {},
    "version": 1
  },
  "userdoc": {
    "kind": "user",
    "methods": {},
    "version": 1
  }
}