{
  "_format": "hh-sol-artifact-1",
  "contractName": "ReverseRegistrar",
  "sourceName": "@ensdomains/ens-contracts/contracts/registry/ReverseRegistrar.sol",
  "abi": [
    {
      "inputs": [
        {
          "internalType": "contract ENS",
          "name": "ensAddr",
          "type": "address"
        },
        {
          "internalType": "contract NameResolver",
          "name": "resolverAddr",
          "type": "address"
        }
      ],
      "stateMutability": "nonpayable",
      "type": "constructor"
    },
    {
      "anonymous": false,
      "inputs": [
        {
          "indexed": true,
          "internalType": "address",
          "name": "controller",
          "type": "address"
        },
        {
          "indexed": false,
          "internalType": "bool",
          "name": "enabled",
          "type": "bool"
        }
      ],
      "name": "ControllerChanged",
      "type": "event"
    },
    {
      "anonymous": false,
      "inputs": [
        {
          "indexed": true,
          "internalType": "address",
          "name": "previousOwner",
          "type": "address"
        },
        {
          "indexed": true,
          "internalType": "address",
          "name": "newOwner",
          "type": "address"
        }
      ],
      "name": "OwnershipTransferred",
      "type": "event"
    },
    {
      "anonymous": false,
      "inputs": [
        {
          "indexed": true,
          "internalType": "address",
          "name": "addr",
          "type": "address"
        },
        {
          "indexed": true,
          "internalType": "bytes32",
          "name": "node",
          "type": "bytes32"
        }
      ],
      "name": "ReverseClaimed",
      "type": "event"
    },
    {
      "inputs": [
        {
          "internalType": "address",
          "name": "owner",
          "type": "address"
        }
      ],
      "name": "claim",
      "outputs": [
        {
          "internalType": "bytes32",
          "name": "",
          "type": "bytes32"
        }
      ],
      "stateMutability": "nonpayable",
      "type": "function"
    },
    {
      "inputs": [
        {
          "internalType": "address",
          "name": "addr",
          "type": "address"
        },
        {
          "internalType": "address",
          "name": "owner",
          "type": "address"
        }
      ],
      "name": "claimForAddr",
      "outputs": [
        {
          "internalType": "bytes32",
          "name": "",
          "type": "bytes32"
        }
      ],
      "stateMutability": "nonpayable",
      "type": "function"
    },
    {
      "inputs": [
        {
          "internalType": "address",
          "name": "owner",
          "type": "address"
        },
        {
          "internalType": "address",
          "name": "resolver",
          "type": "address"
        }
      ],
      "name": "claimWithResolver",
      "outputs": [
        {
          "internalType": "bytes32",
          "name": "",
          "type": "bytes32"
        }
      ],
      "stateMutability": "nonpayable",
      "type": "function"
    },
    {
      "inputs": [
        {
          "internalType": "address",
          "name": "addr",
          "type": "address"
        },
        {
          "internalType": "address",
          "name": "owner",
          "type": "address"
        },
        {
          "internalType": "address",
          "name": "resolver",
          "type": "address"
        }
      ],
      "name": "claimWithResolverForAddr",
      "outputs": [
        {
          "internalType": "bytes32",
          "name": "",
          "type": "bytes32"
        }
      ],
      "stateMutability": "nonpayable",
      "type": "function"
    },
    {
      "inputs": [
        {
          "internalType": "address",
          "name": "",
          "type": "address"
        }
      ],
      "name": "controllers",
      "outputs": [
        {
          "internalType": "bool",
          "name": "",
          "type": "bool"
        }
      ],
      "stateMutability": "view",
      "type": "function"
    },
    {
      "inputs": [],
      "name": "defaultResolver",
      "outputs": [
        {
          "internalType": "contract NameResolver",
          "name": "",
          "type": "address"
        }
      ],
      "stateMutability": "view",
      "type": "function"
    },
    {
      "inputs": [],
      "name": "ens",
      "outputs": [
        {
          "internalType": "contract ENS",
          "name": "",
          "type": "address"
        }
      ],
      "stateMutability": "view",
      "type": "function"
    },
    {
      "inputs": [
        {
          "internalType": "address",
          "name": "addr",
          "type": "address"
        }
      ],
      "name": "node",
      "outputs": [
        {
          "internalType": "bytes32",
          "name": "",
          "type": "bytes32"
        }
      ],
      "stateMutability": "pure",
      "type": "function"
    },
    {
      "inputs": [],
      "name": "owner",
      "outputs": [
        {
          "internalType": "address",
          "name": "",
          "type": "address"
        }
      ],
      "stateMutability": "view",
      "type": "function"
    },
    {
      "inputs": [],
      "name": "renounceOwnership",
      "outputs": [],
      "stateMutability": "nonpayable",
      "type": "function"
    },
    {
      "inputs": [
        {
          "internalType": "address",
          "name": "controller",
          "type": "address"
        },
        {
          "internalType": "bool",
          "name": "enabled",
          "type": "bool"
        }
      ],
      "name": "setController",
      "outputs": [],
      "stateMutability": "nonpayable",
      "type": "function"
    },
    {
      "inputs": [
        {
          "internalType": "string",
          "name": "name",
          "type": "string"
        }
      ],
      "name": "setName",
      "outputs": [
        {
          "internalType": "bytes32",
          "name": "",
          "type": "bytes32"
        }
      ],
      "stateMutability": "nonpayable",
      "type": "function"
    },
    {
      "inputs": [
        {
          "internalType": "address",
          "name": "addr",
          "type": "address"
        },
        {
          "internalType": "address",
          "name": "owner",
          "type": "address"
        },
        {
          "internalType": "string",
          "name": "name",
          "type": "string"
        }
      ],
      "name": "setNameForAddr",
      "outputs": [
        {
          "internalType": "bytes32",
          "name": "",
          "type": "bytes32"
        }
      ],
      "stateMutability": "nonpayable",
      "type": "function"
    },
    {
      "inputs": [
        {
          "internalType": "address",
          "name": "newOwner",
          "type": "address"
        }
      ],
      "name": "transferOwnership",
      "outputs": [],
      "stateMutability": "nonpayable",
      "type": "function"
    }
  ],
  "bytecode": "0x60806040523480156200001157600080fd5b5060405162002094380380620020948339818101604052810190620000379190620003f1565b620000576200004b6200026260201b60201c565b6200026a60201b60201c565b81600260006101000a81548173ffffffffffffffffffffffffffffffffffffffff021916908373ffffffffffffffffffffffffffffffffffffffff16021790555080600360006101000a81548173ffffffffffffffffffffffffffffffffffffffff021916908373ffffffffffffffffffffffffffffffffffffffff1602179055506000600260009054906101000a900473ffffffffffffffffffffffffffffffffffffffff1673ffffffffffffffffffffffffffffffffffffffff166302571be37f91d1777781884d03a6757a803996e38de2a42967fb37eeaca72729271025a9e260001b6040518263ffffffff1660e01b81526004016200015b919062000453565b602060405180830381865afa15801562000179573d6000803e3d6000fd5b505050506040513d601f19601f820116820180604052508101906200019f9190620004a1565b9050600073ffffffffffffffffffffffffffffffffffffffff168173ffffffffffffffffffffffffffffffffffffffff161462000259578073ffffffffffffffffffffffffffffffffffffffff16631e83409a336040518263ffffffff1660e01b8152600401620002119190620004e4565b6020604051808303816000875af115801562000231573d6000803e3d6000fd5b505050506040513d601f19601f8201168201806040525081019062000257919062000532565b505b50505062000564565b600033905090565b60008060009054906101000a900473ffffffffffffffffffffffffffffffffffffffff169050816000806101000a81548173ffffffffffffffffffffffffffffffffffffffff021916908373ffffffffffffffffffffffffffffffffffffffff1602179055508173ffffffffffffffffffffffffffffffffffffffff168173ffffffffffffffffffffffffffffffffffffffff167f8be0079c531659141344cd1fd0a4f28419497f9722a3daafe3b4186f6b6457e060405160405180910390a35050565b600080fd5b600073ffffffffffffffffffffffffffffffffffffffff82169050919050565b6000620003608262000333565b9050919050565b6000620003748262000353565b9050919050565b620003868162000367565b81146200039257600080fd5b50565b600081519050620003a6816200037b565b92915050565b6000620003b98262000353565b9050919050565b620003cb81620003ac565b8114620003d757600080fd5b50565b600081519050620003eb81620003c0565b92915050565b600080604083850312156200040b576200040a6200032e565b5b60006200041b8582860162000395565b92505060206200042e85828601620003da565b9150509250929050565b6000819050919050565b6200044d8162000438565b82525050565b60006020820190506200046a600083018462000442565b92915050565b6200047b8162000353565b81146200048757600080fd5b50565b6000815190506200049b8162000470565b92915050565b600060208284031215620004ba57620004b96200032e565b5b6000620004ca848285016200048a565b91505092915050565b620004de8162000353565b82525050565b6000602082019050620004fb6000830184620004d3565b92915050565b6200050c8162000438565b81146200051857600080fd5b50565b6000815190506200052c8162000501565b92915050565b6000602082840312156200054b576200054a6200032e565b5b60006200055b848285016200051b565b91505092915050565b611b2080620005746000396000f3fe608060405234801561001057600080fd5b50600436106100ea5760003560e01c80638d9522b81161008c578063c47f002711610066578063c47f002714610273578063da8c229e146102a3578063e0dba60f146102d3578063f2fde38b146102ef576100ea565b80638d9522b8146101f55780638da5cb5b14610225578063bffbe61c14610243576100ea565b80633f15457f116100c85780633f15457f1461017f5780634709bf4b1461019d578063715018a6146101cd578063828eab0e146101d7576100ea565b80630ccc4a7f146100ef5780630f5a54661461011f5780631e83409a1461014f575b600080fd5b610109600480360381019061010491906111e5565b61030b565b6040516101169190611251565b60405180910390f35b6101396004803603810190610134919061126c565b61049a565b6040516101469190611251565b60405180910390f35b610169600480360381019061016491906112ac565b6104af565b6040516101769190611251565b60405180910390f35b6101876104c4565b6040516101949190611338565b60405180910390f35b6101b760048036038101906101b2919061126c565b6104ea565b6040516101c49190611251565b60405180910390f35b6101d5610679565b005b6101df61068d565b6040516101ec9190611374565b60405180910390f35b61020f600480360381019061020a91906114d5565b6106b3565b60405161021c9190611251565b60405180910390f35b61022d6109c7565b60405161023a9190611553565b60405180910390f35b61025d600480360381019061025891906112ac565b6109f0565b60405161026a9190611251565b60405180910390f35b61028d6004803603810190610288919061156e565b610a4d565b60405161029a9190611251565b60405180910390f35b6102bd60048036038101906102b891906112ac565b610b17565b6040516102ca91906115d2565b60405180910390f35b6102ed60048036038101906102e89190611619565b610b37565b005b610309600480360381019061030491906112ac565b610be8565b005b6000833373ffffffffffffffffffffffffffffffffffffffff168173ffffffffffffffffffffffffffffffffffffffff1614806103915750600160003373ffffffffffffffffffffffffffffffffffffffff1673ffffffffffffffffffffffffffffffffffffffff16815260200190815260200160002060009054906101000a900460ff165b806104365750600260009054906101000a900473ffffffffffffffffffffffffffffffffffffffff1673ffffffffffffffffffffffffffffffffffffffff1663e985e9c582336040518363ffffffff1660e01b81526004016103f4929190611659565b602060405180830381865afa158015610411573d6000803e3d6000fd5b505050506040513d601f19601f820116820180604052508101906104359190611697565b5b80610446575061044581610c6b565b5b610485576040517f08c379a000000000000000000000000000000000000000000000000000000000815260040161047c9061176d565b60405180910390fd5b610490858585610d1a565b9150509392505050565b60006104a7338484610d1a565b905092915050565b60006104bd33836000610d1a565b9050919050565b600260009054906101000a900473ffffffffffffffffffffffffffffffffffffffff1681565b6000823373ffffffffffffffffffffffffffffffffffffffff168173ffffffffffffffffffffffffffffffffffffffff1614806105705750600160003373ffffffffffffffffffffffffffffffffffffffff1673ffffffffffffffffffffffffffffffffffffffff16815260200190815260200160002060009054906101000a900460ff165b806106155750600260009054906101000a900473ffffffffffffffffffffffffffffffffffffffff1673ffffffffffffffffffffffffffffffffffffffff1663e985e9c582336040518363ffffffff1660e01b81526004016105d3929190611659565b602060405180830381865afa1580156105f0573d6000803e3d6000fd5b505050506040513d601f19601f820116820180604052508101906106149190611697565b5b80610625575061062481610c6b565b5b610664576040517f08c379a000000000000000000000000000000000000000000000000000000000815260040161065b9061176d565b60405180910390fd5b61067084846000610d1a565b91505092915050565b610681610fa1565b61068b600061101f565b565b600360009054906101000a900473ffffffffffffffffffffffffffffffffffffffff1681565b6000833373ffffffffffffffffffffffffffffffffffffffff168173ffffffffffffffffffffffffffffffffffffffff1614806107395750600160003373ffffffffffffffffffffffffffffffffffffffff1673ffffffffffffffffffffffffffffffffffffffff16815260200190815260200160002060009054906101000a900460ff165b806107de5750600260009054906101000a900473ffffffffffffffffffffffffffffffffffffffff1673ffffffffffffffffffffffffffffffffffffffff1663e985e9c582336040518363ffffffff1660e01b815260040161079c929190611659565b602060405180830381865afa1580156107b9573d6000803e3d6000fd5b505050506040513d601f19601f820116820180604052508101906107dd9190611697565b5b806107ee57506107ed81610c6b565b5b61082d576040517f08c379a00000000000000000000000000000000000000000000000000000000081526004016108249061176d565b60405180910390fd5b600061085c8630600360009054906101000a900473ffffffffffffffffffffffffffffffffffffffff16610d1a565b9050600360009054906101000a900473ffffffffffffffffffffffffffffffffffffffff1673ffffffffffffffffffffffffffffffffffffffff16637737221382866040518363ffffffff1660e01b81526004016108bb9291906117fb565b600060405180830381600087803b1580156108d557600080fd5b505af11580156108e9573d6000803e3d6000fd5b50505050600260009054906101000a900473ffffffffffffffffffffffffffffffffffffffff1673ffffffffffffffffffffffffffffffffffffffff166306ab59237f91d1777781884d03a6757a803996e38de2a42967fb37eeaca72729271025a9e260001b610958896110e3565b886040518463ffffffff1660e01b81526004016109779392919061182b565b6020604051808303816000875af1158015610996573d6000803e3d6000fd5b505050506040513d601f19601f820116820180604052508101906109ba919061188e565b5080925050509392505050565b60008060009054906101000a900473ffffffffffffffffffffffffffffffffffffffff16905090565b60007f91d1777781884d03a6757a803996e38de2a42967fb37eeaca72729271025a9e260001b610a1f836110e3565b604051602001610a309291906118dc565b604051602081830303815290604052805190602001209050919050565b600080610a7d3330600360009054906101000a900473ffffffffffffffffffffffffffffffffffffffff16610d1a565b9050600360009054906101000a900473ffffffffffffffffffffffffffffffffffffffff1673ffffffffffffffffffffffffffffffffffffffff16637737221382856040518363ffffffff1660e01b8152600401610adc9291906117fb565b600060405180830381600087803b158015610af657600080fd5b505af1158015610b0a573d6000803e3d6000fd5b5050505080915050919050565b60016020528060005260406000206000915054906101000a900460ff1681565b610b3f610fa1565b80600160008473ffffffffffffffffffffffffffffffffffffffff1673ffffffffffffffffffffffffffffffffffffffff16815260200190815260200160002060006101000a81548160ff0219169083151502179055508173ffffffffffffffffffffffffffffffffffffffff167f4c97694570a07277810af7e5669ffd5f6a2d6b74b6e9a274b8b870fd5114cf8782604051610bdc91906115d2565b60405180910390a25050565b610bf0610fa1565b600073ffffffffffffffffffffffffffffffffffffffff168173ffffffffffffffffffffffffffffffffffffffff1603610c5f576040517f08c379a0000000000000000000000000000000000000000000000000000000008152600401610c569061197a565b60405180910390fd5b610c688161101f565b50565b60008173ffffffffffffffffffffffffffffffffffffffff16638da5cb5b6040518163ffffffff1660e01b8152600401602060405180830381865afa925050508015610cd557506040513d601f19601f82011682018060405250810190610cd291906119af565b60015b610ce25760009050610d15565b3373ffffffffffffffffffffffffffffffffffffffff168173ffffffffffffffffffffffffffffffffffffffff16149150505b919050565b600080610d26856110e3565b905060007f91d1777781884d03a6757a803996e38de2a42967fb37eeaca72729271025a9e260001b82604051602001610d609291906118dc565b6040516020818303038152906040528051906020012090506000600260009054906101000a900473ffffffffffffffffffffffffffffffffffffffff1673ffffffffffffffffffffffffffffffffffffffff16630178b8bf836040518263ffffffff1660e01b8152600401610dd59190611251565b602060405180830381865afa158015610df2573d6000803e3d6000fd5b505050506040513d601f19601f82011682018060405250810190610e1691906119af565b905060008073ffffffffffffffffffffffffffffffffffffffff168673ffffffffffffffffffffffffffffffffffffffff1614158015610e8257508173ffffffffffffffffffffffffffffffffffffffff168673ffffffffffffffffffffffffffffffffffffffff1614155b9050600081610e915782610e93565b865b9050600260009054906101000a900473ffffffffffffffffffffffffffffffffffffffff1673ffffffffffffffffffffffffffffffffffffffff16635ef2c7f07f91d1777781884d03a6757a803996e38de2a42967fb37eeaca72729271025a9e260001b878b8560006040518663ffffffff1660e01b8152600401610f1c959493929190611a2b565b600060405180830381600087803b158015610f3657600080fd5b505af1158015610f4a573d6000803e3d6000fd5b50505050838973ffffffffffffffffffffffffffffffffffffffff167f6ada868dd3058cf77a48a74489fd7963688e5464b2b0fa957ace976243270e9260405160405180910390a383955050505050509392505050565b610fa961116b565b73ffffffffffffffffffffffffffffffffffffffff16610fc76109c7565b73ffffffffffffffffffffffffffffffffffffffff161461101d576040517f08c379a000000000000000000000000000000000000000000000000000000000815260040161101490611aca565b60405180910390fd5b565b60008060009054906101000a900473ffffffffffffffffffffffffffffffffffffffff169050816000806101000a81548173ffffffffffffffffffffffffffffffffffffffff021916908373ffffffffffffffffffffffffffffffffffffffff1602179055508173ffffffffffffffffffffffffffffffffffffffff168173ffffffffffffffffffffffffffffffffffffffff167f8be0079c531659141344cd1fd0a4f28419497f9722a3daafe3b4186f6b6457e060405160405180910390a35050565b600060285b600081111561115e576001810390507f3031323334353637383961626364656600000000000000000000000000000000600f84161a81536010830492506001810390507f3031323334353637383961626364656600000000000000000000000000000000600f84161a81536010830492506110e8565b5060286000209050919050565b600033905090565b6000604051905090565b600080fd5b600080fd5b600073ffffffffffffffffffffffffffffffffffffffff82169050919050565b60006111b282611187565b9050919050565b6111c2816111a7565b81146111cd57600080fd5b50565b6000813590506111df816111b9565b92915050565b6000806000606084860312156111fe576111fd61117d565b5b600061120c868287016111d0565b935050602061121d868287016111d0565b925050604061122e868287016111d0565b9150509250925092565b6000819050919050565b61124b81611238565b82525050565b60006020820190506112666000830184611242565b92915050565b600080604083850312156112835761128261117d565b5b6000611291858286016111d0565b92505060206112a2858286016111d0565b9150509250929050565b6000602082840312156112c2576112c161117d565b5b60006112d0848285016111d0565b91505092915050565b6000819050919050565b60006112fe6112f96112f484611187565b6112d9565b611187565b9050919050565b6000611310826112e3565b9050919050565b600061132282611305565b9050919050565b61133281611317565b82525050565b600060208201905061134d6000830184611329565b92915050565b600061135e82611305565b9050919050565b61136e81611353565b82525050565b60006020820190506113896000830184611365565b92915050565b600080fd5b600080fd5b6000601f19601f8301169050919050565b7f4e487b7100000000000000000000000000000000000000000000000000000000600052604160045260246000fd5b6113e282611399565b810181811067ffffffffffffffff82111715611401576114006113aa565b5b80604052505050565b6000611414611173565b905061142082826113d9565b919050565b600067ffffffffffffffff8211156114405761143f6113aa565b5b61144982611399565b9050602081019050919050565b82818337600083830152505050565b600061147861147384611425565b61140a565b90508281526020810184848401111561149457611493611394565b5b61149f848285611456565b509392505050565b600082601f8301126114bc576114bb61138f565b5b81356114cc848260208601611465565b91505092915050565b6000806000606084860312156114ee576114ed61117d565b5b60006114fc868287016111d0565b935050602061150d868287016111d0565b925050604084013567ffffffffffffffff81111561152e5761152d611182565b5b61153a868287016114a7565b9150509250925092565b61154d816111a7565b82525050565b60006020820190506115686000830184611544565b92915050565b6000602082840312156115845761158361117d565b5b600082013567ffffffffffffffff8111156115a2576115a1611182565b5b6115ae848285016114a7565b91505092915050565b60008115159050919050565b6115cc816115b7565b82525050565b60006020820190506115e760008301846115c3565b92915050565b6115f6816115b7565b811461160157600080fd5b50565b600081359050611613816115ed565b92915050565b600080604083850312156116305761162f61117d565b5b600061163e858286016111d0565b925050602061164f85828601611604565b9150509250929050565b600060408201905061166e6000830185611544565b61167b6020830184611544565b9392505050565b600081519050611691816115ed565b92915050565b6000602082840312156116ad576116ac61117d565b5b60006116bb84828501611682565b91505092915050565b600082825260208201905092915050565b7f43616c6c6572206973206e6f74206120636f6e74726f6c6c6572206f7220617560008201527f74686f72697365642062792061646472657373206f722074686520616464726560208201527f737320697473656c660000000000000000000000000000000000000000000000604082015250565b60006117576049836116c4565b9150611762826116d5565b606082019050919050565b600060208201905081810360008301526117868161174a565b9050919050565b600081519050919050565b60005b838110156117b657808201518184015260208101905061179b565b60008484015250505050565b60006117cd8261178d565b6117d781856116c4565b93506117e7818560208601611798565b6117f081611399565b840191505092915050565b60006040820190506118106000830185611242565b818103602083015261182281846117c2565b90509392505050565b60006060820190506118406000830186611242565b61184d6020830185611242565b61185a6040830184611544565b949350505050565b61186b81611238565b811461187657600080fd5b50565b60008151905061188881611862565b92915050565b6000602082840312156118a4576118a361117d565b5b60006118b284828501611879565b91505092915050565b6000819050919050565b6118d66118d182611238565b6118bb565b82525050565b60006118e882856118c5565b6020820191506118f882846118c5565b6020820191508190509392505050565b7f4f776e61626c653a206e6577206f776e657220697320746865207a65726f206160008201527f6464726573730000000000000000000000000000000000000000000000000000602082015250565b60006119646026836116c4565b915061196f82611908565b604082019050919050565b6000602082019050818103600083015261199381611957565b9050919050565b6000815190506119a9816111b9565b92915050565b6000602082840312156119c5576119c461117d565b5b60006119d38482850161199a565b91505092915050565b6000819050919050565b600067ffffffffffffffff82169050919050565b6000611a15611a10611a0b846119dc565b6112d9565b6119e6565b9050919050565b611a25816119fa565b82525050565b600060a082019050611a406000830188611242565b611a4d6020830187611242565b611a5a6040830186611544565b611a676060830185611544565b611a746080830184611a1c565b9695505050505050565b7f4f776e61626c653a2063616c6c6572206973206e6f7420746865206f776e6572600082015250565b6000611ab46020836116c4565b9150611abf82611a7e565b602082019050919050565b60006020820190508181036000830152611ae381611aa7565b905091905056fea2646970667358221220b05815b7df3bdcbadcec7fc6e99751e2777ff8a8a73d609f15412a15b63ae60d64736f6c63430008130033",
  "linkReferences": {},
  "deployedLinkReferences": {}
}