{
  "_format": "hh-sol-artifact-1",
  "contractName": "FIFSRegistrar",
  "sourceName": "@ensdomains/ens-contracts/contracts/registry/FIFSRegistrar.sol",
  "abi": [
    {
      "inputs": [
        {
          "internalType": "contract ENS",
          "name": "ensAddr",
          "type": "address"
        },
        {
          "internalType": "bytes32",
          "name": "node",
          "type": "bytes32"
        }
      ],
      "stateMutability": "nonpayable",
      "type": "constructor"
    },
    {
      "inputs": [
        {
          "internalType": "bytes32",
          "name": "label",
          "type": "bytes32"
        },
        {
          "internalType": "address",
          "name": "owner",
          "type": "address"
        }
      ],
      "name": "register",
      "outputs": [],
      "stateMutability": "nonpayable",
      "type": "function"
    }
  ],
  "bytecode": "0x608060405234801561001057600080fd5b506040516105f83803806105f88339818101604052810190610032919061012b565b816000806101000a81548173ffffffffffffffffffffffffffffffffffffffff021916908373ffffffffffffffffffffffffffffffffffffffff16021790555080600181905550505061016b565b600080fd5b600073ffffffffffffffffffffffffffffffffffffffff82169050919050565b60006100b082610085565b9050919050565b60006100c2826100a5565b9050919050565b6100d2816100b7565b81146100dd57600080fd5b50565b6000815190506100ef816100c9565b92915050565b6000819050919050565b610108816100f5565b811461011357600080fd5b50565b600081519050610125816100ff565b92915050565b6000806040838503121561014257610141610080565b5b6000610150858286016100e0565b925050602061016185828601610116565b9150509250929050565b61047e8061017a6000396000f3fe608060405234801561001057600080fd5b506004361061002b5760003560e01c8063d22057a914610030575b600080fd5b61004a600480360381019061004591906102c7565b61004c565b005b8160008060009054906101000a900473ffffffffffffffffffffffffffffffffffffffff1673ffffffffffffffffffffffffffffffffffffffff166302571be3600154846040516020016100a1929190610328565b604051602081830303815290604052805190602001206040518263ffffffff1660e01b81526004016100d39190610363565b602060405180830381865afa1580156100f0573d6000803e3d6000fd5b505050506040513d601f19601f820116820180604052508101906101149190610393565b9050600073ffffffffffffffffffffffffffffffffffffffff168173ffffffffffffffffffffffffffffffffffffffff16148061017c57503373ffffffffffffffffffffffffffffffffffffffff168173ffffffffffffffffffffffffffffffffffffffff16145b61018557600080fd5b60008054906101000a900473ffffffffffffffffffffffffffffffffffffffff1673ffffffffffffffffffffffffffffffffffffffff166306ab592360015486866040518463ffffffff1660e01b81526004016101e4939291906103cf565b6020604051808303816000875af1158015610203573d6000803e3d6000fd5b505050506040513d601f19601f82011682018060405250810190610227919061041b565b5050505050565b600080fd5b6000819050919050565b61024681610233565b811461025157600080fd5b50565b6000813590506102638161023d565b92915050565b600073ffffffffffffffffffffffffffffffffffffffff82169050919050565b600061029482610269565b9050919050565b6102a481610289565b81146102af57600080fd5b50565b6000813590506102c18161029b565b92915050565b600080604083850312156102de576102dd61022e565b5b60006102ec85828601610254565b92505060206102fd858286016102b2565b9150509250929050565b6000819050919050565b61032261031d82610233565b610307565b82525050565b60006103348285610311565b6020820191506103448284610311565b6020820191508190509392505050565b61035d81610233565b82525050565b60006020820190506103786000830184610354565b92915050565b60008151905061038d8161029b565b92915050565b6000602082840312156103a9576103a861022e565b5b60006103b78482850161037e565b91505092915050565b6103c981610289565b82525050565b60006060820190506103e46000830186610354565b6103f16020830185610354565b6103fe60408301846103c0565b949350505050565b6000815190506104158161023d565b92915050565b6000602082840312156104315761043061022e565b5b600061043f84828501610406565b9150509291505056fea2646970667358221220e6277f788675fb93b12a3fee2fb6c60bdb7875e6c6001410932ad215340f426a64736f6c63430008130033",
  "linkReferences": {},
  "deployedLinkReferences": {}
}